:020000040800F2
:100000006007002029020008851D0008091C00085F
:10001000811D0008D5030008ED2000080000000045
:100020000000000000000000000000008D1D00081E
:10003000E503000800000000891D0008911D00086C
:10004000430200084302000843020008430200087C
:10005000430200084302000843020008430200086C
:10006000430200084302000843020008430200085C
:10007000430200084302000843020008430200084C
:10008000430200084302000843020008430200083C
:10009000430200084302000843020008430200082C
:1000A000430200084302000843020008430200081C
:1000B000A91D00084302000843020008430200088B
:1000C00043020008430200084302000843020008FC
:1000D00043020008E1200008430200084302000830
:1000E00043020008430200084302000843020008DC
:1000F00043020008430200084302000843020008CC
:1001000043020008430200084302000843020008BB
:1001100043020008430200084302000843020008AB
:100120004302000843020008D90300084302000804
:10013000430200084302000843020008430200088B
:10014000430200084302000843020008430200087B
:10015000430200084302000843020008430200086B
:10016000430200084302000843020008430200085B
:100170004302000843020008430200080000000098
:10018000430200084302000800F002F800F03CF8C7
:100190000AA090E8000C82448344AAF10107DA45E2
:1001A00001D100F031F8AFF2090EBAE80F0013F0F8
:1001B000010F18BFFB1A43F001031847F420000099
:1001C00014210000103A24BF78C878C1FAD8520729
:1001D00024BF30C830C144BF04680C6070470000C1
:1001E0000023002400250026103A28BF78C1FBD840
:1001F000520728BF30C148BF0B6070471FB502F0DF
:100200003AF81FBD10B510BD00F0A9F81146FFF770
:10021000F5FF02F015F800F0C7F803B4FFF7F2FF9E
:1002200003BC00F0CFF800000948804709480047A8
:10023000FEE7FEE7FEE7FEE7FEE7FEE7FEE7FEE796
:10024000FEE7FEE704480549054A064B70470000F3
:10025000951D00088901000860010020600700204A
:10026000600300206003002053EA020C00F0698064
:100270002DE9F04B4FF00006002B1FBFB3FA83F5BA
:1002800003FA05F424FA05F65E4012BF1643B2FAEB
:1002900082F502FA05F4C5F120051EBF22FA05FC1D
:1002A00044EA0C04203556EA044C4FEA144418BFC3
:1002B000641C4FF000084FF00009904271EB030CF2
:1002C00039D3002919BFB1FA81F701FA07F6B0FA5C
:1002D00080F700FA07F6C7F120071EBF20FA07FCD7
:1002E00046EA0C062037B6FBF4FCA7EB0507103FE7
:1002F00007F01F0BCBF120062CFA06F60CFA0BFBCD
:1003000044BFB3460026202FA4BF5E464FF0000B2B
:100310005BEA060C08BF4FF0010B19EB0B0948EB29
:100320000608ABFB027C06FB02CC0BFB03CCC01B1C
:1003300071EB0C01C1E70B46024641464846BDE859
:10034000F08B13B5084318BF4FF0FF300146AFF3F1
:100350000080BDE81C407047704770477047754685
:1003600000F02CF8AE4605006946534620F0070021
:10037000854618B020B5FFF765FFBDE820404FF077
:1003800000064FF000074FF000084FF0000BAC469E
:10039000ACE8C009ACE8C009ACE8C009ACE8C009E9
:1003A00021F007018D46704710B50446AFF3008079
:1003B0002046BDE81040FFF730BF000000487047FE
:1003C0001000002001491820ABBEFEE72600020005
:1003D00070470000FEE7000040F27000C2F200002B
:1003E00000F062B870470000EFF3108072B60000B2
:1003F00070B5866D044600F0E9FA94F835100229CC
:100400002ED105462068216C026822F01602026097
:10041000426922F08002426109B9A16C19B10168F8
:1004200021F008010160016821F00101016000680C
:10043000C00708D000F0CAFA401B052818D8206869
:100440000068C007F6D1E06D3F2101FA00F0B0600E
:10045000012084F835000020002184F8341070BD9C
:10046000802060650120002184F8341070BD00BF39
:1004700020206065032084F83500002184F83410C2
:1004800070BD000090F83510022909D1052180F8CF
:1004900035100068016821F00101016000207047FB
:1004A0008021416501207047F0B581B004460020ED
:1004B000009040F20800C2F200000268D4E9166021
:1004C00048F2B51337680821C1F64E3381403942EE
:1004D000A2FB03250CD0226813685B0708D51368BC
:1004E00023F004031360B160616D41F001016165A7
:1004F00001218140394208D022685269120604D590
:10050000B160616D41F002016165042181403942B1
:1005100008D022681268920704D5B160616D41F07D
:100520000401616510218140394217D020680268BA
:10053000120713D5B16002680168520308D4C905D7
:1005400008D4016821F008010160216C21B905E09F
:1005500008033FD4216C09B120468847E16D202073
:1005600000FA01F23A4241D020680368DB063DD52B
:10057000B26094F835300268052B1BD122F01602C8
:100580000260426922F080024261226C0AB9A26CC8
:100590001AB1026822F0080202603F208840B06071
:1005A000012084F83500216D0020002984F83400F2
:1005B00052D157E00168520310D4C90512D4016822
:1005C00021F010010160012084F83500002084F83A
:1005D000340007E0A16C0029BED1BFE7080301D4B5
:1005E000616C00E0E16B09B120468847606DC8B3DB
:1005F000606DC0072ED0052084F835002068A90A58
:10060000026822F001020260009A01328A420092DE
:100610001AD80268D20717D0009A01328A42009293
:1006200012D80268D2070FD0009A01328A42009293
:100630000AD80268D20707D0009A01328A42009293
:1006400002D80268D207DFD1012084F835000020EB
:1006500084F83400E16C29B1204601B0BDE8F040D7
:10066000084700BF01B0F0BD2DE9F041044600F09D
:10067000ADF9002C4ED00546022084F8350000204C
:10068000216884F83400086820F0010008600868D8
:10069000C00708D000F09AF9401B05286CD82168E3
:1006A0000868C007F6D1086848F23F02CFF210028E
:1006B000D4E90135024004F10C0E9EE8C1511A4301
:1006C0002A4310433043384340EA0800626A40EA54
:1006D0000C00042A40EA0E0320D1D4E90A5E206B04
:1006E0004EEA0302104308604869BEF1000F20F093
:1006F000030040EA050040F0040C15D0B8F5005F97
:1007000042D0B8F1000F51D1022D52D0012D47D067
:1007100055B94EE00120BDE8F08100BF0B6048698B
:1007200020F0070040EA020C6FF00F004AF6AB22FF
:1007300050FA81F0CAF6AA22A0FB02231A0942F25B
:10074000A823C0F600039A5C40F2FF335F284FF005
:100750003F00C1F814C021EA030100FA02F088BF8B
:100760000431C4E916128860002301220020636569
:1007700084F83520BDE8F08103222023032063653F
:1007800084F83520BDE8F081032DCDD80122402327
:100790000120DFE805F0030E030500BFE7E700BF17
:1007A000AEF1C070B0FA80F0400904E0032D04D32C
:1007B000BAD1CEF300600028B6D001224023012038
:1007C000636584F83520BDE8F0810000B0B50446CB
:1007D00000F0FCF8054640F20000C2F2000000788C
:1007E000611C18BF044400BF00F0F0F8401BA04299
:1007F000FAD3B0BD2DE9F04F82B000F13E4241F690
:10080000004502F1FF77C4F2020508224FEAB7263D
:10081000A84208BF0722072E38BF4FEAB7224FF081
:10082000010A002400274FF00008009208E000BFF2
:10083000023708F10108202F04F1040400F0B4800D
:100840000E680AFA08F916EA090FF1D0D1F804A0E7
:100850000AF0030BABF10106012E17D803228668BC
:1008600002FA07FECA6826EA0E06BA4032438260E0
:100870004268CAF3001522EA090205FA08F54FEAB0
:10088000480C6FEA0E062A4342600BE00322BA408E
:10089000D643BBF1030FBC4604D1BC464FF0030B5B
:1008A00022E000BFC2688D68324005FA0CF52A4389
:1008B000BBF1020FC26017D16FF0030202EA5802C7
:1008C000024404F01C030F25D2F820E005FA03FAD5
:1008D0000D692EEA0A0E05FA03F343EA0E031362CA
:1008E000D1F804A00AF0030B02680BFA0CF33240B3
:1008F0001A431AF4403F4FF0010A026098D00022D8
:1009000043F644030192C4F202031A6843F6004E10
:1009100042F480421A601A68C4F2010E02F4804266
:100920000192019A28F003024FF6084C7244CFF668
:10093000FF7C52F80C3004F00C060F25B540AB4399
:10094000009D05FA06F6334342F80C30DEF8082025
:100950004B6842EA090643F60C4CDD0258BF22EA16
:100960000906CEF80860C4F2010CDCF800209D02F4
:1009700042EA090658BF22EA0906CCF80060DEF810
:1009800004209D0342EA090658BF22EA0906CEF870
:100990000460DEF80020DB0342EA090658BF22EAC1
:1009A0000906CEF8006043E702B0BDE8F08F000012
:1009B000426902EA0103914341EA034181617047C0
:1009C000002A08BF090481617047000040F25C10F2
:1009D000C2F200000068704740F2000040F25C1173
:1009E000C2F20000C2F2000100780A6810440860F8
:1009F0007047000080B543F60040C4F20200016871
:100A000041F400710160016841F480610160016896
:100A100041F480710160032000F084F80F2000F0A1
:100A200005F800F027F8002080BD000070B540F206
:100A30000006C2F2000640F208013278C2F200015C
:100A40004FF47A730968B3FBF2F20446B1FBF2F19A
:100A5000084600F041FB0F2C4FF0010508D838B9CB
:100A60004FF0FF3021460022002500F02FF874607F
:100A7000284670BD82B0002043F640010190C4F2C8
:100A800002014A6842F480424A604A6802F48042A5
:100A90000192019A0090086840F080500860086850
:100AA00000F080500090009802B07047002848BFC6
:100AB000704700F01F01012202FA01F14EF200120C
:100AC0004009CEF2000242F82010704710B54EF6F1
:100AD0000C5CCEF2000CDCF80030C3F3022E8EF07A
:100AE0000704042C28BF0424BEF103034FF0FF3E8B
:100AF0000EFA04F438BF0023A14399400EFA03F321
:100B00009A43114300F00F02043A624409010C3287
:100B100000F16043B0F1FF3FC8BF03F564421170BC
:100B200010BD00004EF60C51CEF200010A684FF6DF
:100B3000FF031A4060F30A2242F0806040F0FD702B
:100B4000086070472DE9F041002800F08B8043F6E3
:100B50000808C4F202080446D8F8F8030D4600F06D
:100B60000700884207D288F8F853D8F8F80300F055
:100B70000700A84276D12068810717D5410705D51F
:100B8000D8F8001041F4E051C8F80010010705D56D
:100B9000D8F8001041F46041C8F80010D8F80010EF
:100BA000A26821F0F0011143C8F80010C0073FD13E
:100BB000D8F8F80300F00700A84207D988F8F853DE
:100BC000D8F8F80300F00700A8424BD1206841078D
:100BD00007D5D8F80010E26821F4E0511143C8F8B5
:100BE0000010000708D5D8F80000216920F4604003
:100BF00040EAC100C8F8000000F07CF8D8F8001006
:100C000042F29022C1F30311C0F60002515C40F29F
:100C1000080220FA01F140F20400C2F2000000686C
:100C2000C2F200021160FFF701FF0020BDE8F08171
:100C30006068811E022907D258F8081C89015CBF30
:100C40000120BDE8F08111E0012807D158F8081C07
:100C500089035CBF0120BDE8F08107E058F8081C5B
:100C6000890703D40120BDE8F08100BFD8F8001047
:100C700021F003010843C8F80000FFF7A7FE06466D
:100C800041F28837D8F80000616800F00C00B0EB42
:100C9000810F8DD0FFF79AFE801BB842F2D9032056
:100CA000BDE8F08140F2080043F60801C2F20000FE
:100CB000C4F202010068096842F2A022C1F3822155
:100CC000C0F60002515CC8407047000040F20800C6
:100CD00043F60801C2F20000C4F20201006809688C
:100CE00042F2A022C1F34231C0F60002515CC8407A
:100CF0007047000010B543F60404C4F202046068B3
:100D000000F00C0008280BD0042819BF42F2004064
:100D1000C0F2F40047F64000C0F27D1010BD00BFE5
:100D2000206821682368490247F64001C0F27D111E
:100D300000F03F02C3F388105CBF42F20041C0F2F2
:100D4000F401A1FB00010023FFF78EFA21680222C3
:100D5000C1F3014102EB4101B0FBF1F010BD000015
:100D60002DE9F04182B000286AD00446007843F6AD
:100D70000006C007C4F202060BD0B06800F00C00F9
:100D8000042840F0A1803068800302D56068002804
:100D900056D0207880071AD5B06810F00C0F09D013
:100DA000B06800F00C00082840F0A880706840028D
:100DB00000F1A4803068800702D5E06801283FD1A7
:100DC0003068216920F0F80040EAC10030602078E6
:100DD000000739D4207840074ED4A5695DB3B068C8
:100DE00000F00C00082840F0BD80012D28D070686C
:100DF000E16900F480028A4222D1216A00F03F02B8
:100E00008A421DD147F6C071626A0140B1EB821F70
:100E100016D1A26A0023CFF6FF7303EBC23200F4AF
:100E200040316FF30F0291420AD1E16A00F0706025
:100E3000B0EB016F04D1002002B0BDE8F08100BF2B
:100E4000012002B0BDE8F0816069002840F2000096
:100E5000C4F2472076D00121C0F8801EFFF7B6FD0E
:100E6000054600BF706F8007B4D4FFF7AFFD401B8D
:100E70000228F7D9DDE000BF306C10F080580AD1AD
:100E800000200190306C40F080503064306C00F0F5
:100E900080500190019847F20007C4F200073868BB
:100EA000C00541D4386840F480703860FFF78EFD8B
:100EB000054600BF3868C00536D4FFF787FD401BE4
:100EC0000228F7D9B5E000BFB06800F00C00082890
:100ED00003D1706840023FF556AF6068B0F5803FBF
:100EE00007D0B0F5A02F40F08D80306840F480200E
:100EF0003060306840F4803030608DE0E068002879
:100F000052D00020C4F2472001210160FFF75EFDAE
:100F1000054600BF306880073FF552AFFFF756FD2A
:100F2000401B0228F6D984E0A068012805D00528D6
:100F30004ED1306F40F004003067306F40F0010058
:100F400030674FE00021C0F8801EFFF73FFD0546E7
:100F5000706F80077FF53EAFFFF738FD401B02281A
:100F6000F6D966E00027C4F2472700203866FFF76D
:100F70002DFD022D05460BD1306880015ED5FFF7AF
:100F800025FD401B02284FF00300F5D954E700BFB0
:100F9000306880017FF54FAFFFF718FD401B022836
:100FA0004FF00300F4D947E70020C4F247200021A6
:100FB0000160FFF70BFD0546306880077FF507AF3E
:100FC000FFF704FD401B02284FF00300F4D933E77C
:100FD000316F002821F001013167316F21F00401E8
:100FE00031674DD0FFF7F2FC054641F2883700BF6C
:100FF000306F800756D4FFF7E9FC401BB842F7D9A1
:1010000017E000BF3168002821F480313160316879
:1010100021F4802131604FD0FFF7D8FC054600BF96
:10102000306880033FF5B5AEFFF7D0FC401B642865
:10103000F6D9032002B0BDE8F08100BF04F11C0521
:101040002FCD08430021CFF6FF7140EA821001EB5B
:10105000C3316FF30F0140EA05600843706001205F
:101060003866FFF7B3FC0446306880013FF5E3AE15
:10107000FFF7ACFC001B02284FF00300F4D9DBE6BD
:10108000FFF7A4FC054641F2883700BF306F8007A8
:1010900008D5FFF79BFC401BB8424FF00300F5D981
:1010A000CAE600BFB8F1000F7FF497AE306C20F0B5
:1010B0008050306491E600BFFFF788FC054600BF12
:1010C000306880037FF565AEFFF780FC401B642825
:1010D0004FF00300F4D9AFE6411E0020B0EB116FD2
:1010E0001CBF012070474EF21002CEF20002516088
:1010F0004EF62351CEF20001F0230B7007219060D1
:1011000011607047704700007047000010B590F8FC
:101110003C20012A4FF0020251D080F83D200268A5
:10112000D2F804E0D2F808C00C682EF07003234314
:1011300041F2FF74C4F20004A24253600EDC40F29C
:10114000FF73C4F200039A4216DCB2F1804F2BD039
:1011500040F20043C4F2000324E000BF40F2FF333A
:10116000C4F201039A4213DC41F60003C4F2000307
:101170009A4219D0002313E040F60003C4F20003A2
:101180009A4211D040F60043C4F200030AE000BFC7
:1011900044F20003C4F201039A4205D040F2004336
:1011A000C4F201039A4204D149682CF08003194328
:1011B00091600121002280F83D1080F83C2010460B
:1011C00010BD0000002804BF0120704710B5044680
:1011D00090F83D0028B9002084F83C00204600F03B
:1011E0001FF8022084F83D002068211D00F0E2FD78
:1011F000012084F8460084F83E0084F83F0084F81B
:10120000400084F8410084F8420084F8430084F8E8
:10121000440084F8450084F83D00002010BD000023
:1012200080B582B00068B0F1804F1CBF02B080BDB5
:101230000020019043F64000C4F202000168002241
:1012400041F0010101600068002100F001000190FF
:1012500001981C20FFF73AFC1C2002B0BDE880403A
:10126000FFF724BC80B590F83C20012A4FF0020221
:1012700000F0C28080F83D20D0F800C04FF67772B1
:10128000DCF8083023EA0202CCF808200B684F2B68
:1012900028DC1F2B44DD202B45D0302B43D0402BA6
:1012A00040F0AC80D1F804E0C968DCF82030DCF80C
:1012B000202022F00102CCF82020DCF8182022F0B7
:1012C000F00242EA011123F00A0242EA0E02CCF8CF
:1012D0001810CCF82020DCF8081041F0470121F06C
:1012E000300180E06F2B27DDB3F5005F48D0B3F508
:1012F000805F7AD0702B40F08180D1E901E3C9682A
:10130000DCF8082043EA0E0322F47F4243EA01217D
:101310001143CCF80810DCF8081041F0770162E0C6
:101320000BB1102B6AD1DCF8081021F070011943C1
:1013300041F0070157E000BF502B35D0602B5DD145
:10134000D1F804E0C968DCF8203023F01003CCF8B1
:101350002030DCF81830DCF8202023F4704322F031
:10136000A00243EA013142EA0E12CCF81810CCF880
:101370002020DCF8081041F0670121F0100132E074
:10138000D1E901E3C968DCF8082043EA0E0322F43E
:101390007F4243EA01211143CCF80810DCF8081021
:1013A00041F480411FE000BFD1F804E0C968DCF8D7
:1013B0002030DCF8202022F00102CCF82020DCF8DC
:1013C000182022F0F00242EA011123F00A0242EA58
:1013D0000E02CCF81810CCF82020DCF8081041F0F0
:1013E000570121F02001CCF808100022012180F8DB
:1013F0003D10002180F83C10104680BD0122F5E729
:101400007047000010B5016804460869800744BFB2
:10141000C8685FEA807039D40869400744BFC8686B
:101420005FEA40703ED40869000744BFC8685FEABD
:10143000007045D40869C00644BFC8685FEAC06050
:101440004AD40869C0071CBFC8685FEAC07051D1A0
:101450000869000644BFC8685FEA006052D40869A2
:10146000400644BFC8685FEA406053D408698006FC
:1014700046BFC8685FEA806010BD6FF0200220465A
:101480000A61BDE81040FFF73FBE00BF6FF00200E9
:101490000861012020778869800743D02046FFF744
:1014A000AFFF45E06FF004000861022020778869F3
:1014B00010F4407F40D02046FFF7A2FF42E000BF7B
:1014C0006FF00800086104202077C86980073DD0CC
:1014D0002046FFF795FF3FE06FF0100008610820FD
:1014E0002077C86910F4407F3AD02046FFF788FF84
:1014F0003CE000BF6FF001000861204600F03EF8BC
:101500002168A5E76FF0800008612046FFF7FAFD2B
:101510002168A4E76FF040000861204600F030F831
:101520002168A3E7204600F025F8204600F024F8C3
:101530002168002020776FE7204600F01BF8204646
:1015400000F01AF82168002020776CE7204600F0B0
:1015500011F8204600F010F821680020207769E794
:10156000204600F007F8204600F006F82168002029
:10157000207766E770470000704700007047000062
:10158000704700007047000070470000B0B582B09F
:10159000044600680168C368426901F02F05202DE8
:1015A00003F0200506D12DB1204602B0BDE8B040C1
:1015B00000F0A4BC5FEA017C1EBF02F0010E03F440
:1015C000907212EB0E0255D1226B012A05D111F057
:1015D000100218BF13F0100236D10A0622D513F0FC
:1015E00080021FD094F83D10212941D1A168B1F5A6
:1015F000805F03D12169002900F06C82216A4A1CB6
:10160000226209784160E18C01390A04E1842FD11A
:10161000C16821F08001C160C16841F04001C16032
:1016200002B0B0BD490623D513F0400120D0C168F7
:1016300021F04001C1602021204684F83D1002B015
:10164000BDE8B04000F0DEBA0021019101680191CF
:101650004168019101994169490600F18B80A18D92
:10166000E28DE38D002B1CBF891A5FEA01420CD189
:1016700002B0B0BDCA0718BF13F4807240F03281C7
:101680004A0700F135813AE1206850E8030F2268EB
:1016900020F4907042E80303DBB1206850E8030FA8
:1016A000226820F4907042E8030393B1206850E868
:1016B000030F226820F4907042E803034BB12068C6
:1016C00050E8030F226820F4907042E80303002BD7
:1016D000DAD1206850E8050F226820F0010042E8C6
:1016E0000503DBB1206850E8050F226820F00100F7
:1016F00042E8050393B1206850E8050F226820F006
:10170000010042E805034BB1206850E8050F22684C
:1017100020F0010042E80503002BDAD1202084F8F4
:101720003E0000202063206850E8030F226820F06C
:10173000100042E80303DBB1206850E8030F226881
:1017400020F0100042E8030393B1206850E8030F33
:10175000226820F0100042E803034BB1206850E8F3
:10176000030F226820F0100042E80303002BDAD1B7
:1017700089B2B0E0A26B11684B689DB2002D3FF4B6
:1017800077AFA18D8D42BFF473AFE385D269B2F517
:10179000807F00F09D8050E8030F216820F4807066
:1017A00041E80302E2B1206850E8030F216820F409
:1017B000807041E803029AB1206850E8030F216865
:1017C00020F4807041E8030252B1206850E8030F12
:1017D000216820F4807041E803020AB12068DAE74A
:1017E000206850E8050F216820F0010041E805025B
:1017F000DAB1206850E8050F216820F0010041E8C7
:10180000050292B1206850E8050F216820F0010020
:1018100041E805024AB1206850E8050F216820F030
:10182000010041E80502002ADAD1206850E8050FDE
:10183000216820F0400041E80502DAB1206850E854
:10184000050F216820F0400041E8050292B12068B0
:1018500050E8050F216820F0400041E805024AB138
:10186000206850E8050F216820F0400041E805029B
:10187000002ADAD1202084F83E000020206320686E
:1018800050E8030F216820F0100041E80302DAB1AC
:10189000206850E8030F216820F0100041E803029F
:1018A00092B1206850E8030F216820F0100041E851
:1018B00003024AB1206850E8030F216820F01000AD
:1018C00041E80302002ADAD1A06BFEF791FDA18D59
:1018D000E08D081A81B2204602B0BDE8B040FFF7A3
:1018E00051BE00BF226C42F0010222644A0706D5B5
:1018F000BEF1000F03D0226C42F0020222648A077C
:1019000006D5BEF1000F03D0226C42F0040222641F
:10191000BCF1000F06D555EA0E0203D0226C42F04E
:1019200008022264226C002A3FF4A2AE11F02001CA
:1019300018BF002D03D0204600F0E0FA206841696E
:10194000226C01F0400102F00802891800F0A28028
:1019500050E8030F216820F4907041E80302C2B3FD
:10196000206850E8030F216820F4907041E80302DA
:101970007AB3206850E8030F216820F4907041E8A2
:10198000030232B3206850E8030F216820F49070FE
:1019900041E80302EAB12068DAE700BF206850E8B6
:1019A000050F216820F0010041E80502DAB1206846
:1019B00050E8050F216820F0010041E8050292B1CE
:1019C000206850E8050F216820F0010041E8050279
:1019D0004AB1206850E8050F216820F0010041E875
:1019E0000502002ADAD1206B012824D1206850E8B2
:1019F000030F216820F0100041E80302DAB12068EB
:101A000050E8030F216820F0100041E8030292B172
:101A1000206850E8030F216820F0100041E803021D
:101A20004AB1206850E8030F216820F0100041E817
:101A30000302002ADAD1202084F83E00002020632F
:101A40002068416949063FD550E8050F216820F01C
:101A5000400041E805022AB3206850E8050F2168DC
:101A600020F0400041E80502E2B1206850E8050F8F
:101A7000216820F0400041E805029AB1206850E852
:101A8000050F216820F0400041E8050252B12068AE
:101A9000DAE700BF2046FFF777FD0020206402B0A0
:101AA000B0BD00BFA06B78B141F6F161C0F6000196
:101AB0000165FEF7E7FC00283FF4DAADA06B016D8D
:101AC00002B0BDE8B0400847204602B0BDE8B040D3
:101AD000FFF75ABD216A31F8022B6FF35F22426093
:101AE000216290E5002804BF0120704710B504462C
:101AF00090F83D0028B9002084F83C00204600F012
:101B000021F8242084F83D002068C16821F40051A8
:101B1000C160204600F072FA2068016921F490410A
:101B20000161416921F02A014161C16841F400511C
:101B3000C16000202021206484F83D1084F83E100C
:101B400010BD000070B586B00446016841F2000087
:101B5000C4F20100814201D006B070BD002643F6F8
:101B600030010196C4F202014A6900F5744042F066
:101B700010024A614A6902F010020192019A01962C
:101B80000A6842F002020A60096801F0020101914C
:101B90000199C02101910221CDE90216032104918E
:101BA0000721059101A9FEF725FE40F2700546F2D6
:101BB0004040C2F20005C4F202004FF0006185E827
:101BC00043004FF400304FF48062C5E90806284610
:101BD000C5E90362C5E90566EE61FEF745FD00282B
:101BE00018BFFEF701FC252000210022A563AC638D
:101BF000FEF76CFF2520FEF759FF06B070BD000010
:101C00007047000070470000FEE7000080B582B01A
:101C10000020019043F63000C4F202000168002267
:101C200041F4800101600068002100F4800001900F
:101C300001983A20FEF74AFF3A2002B0BDE8804002
:101C4000FEF734BF70B586B0002543F63000059529
:101C50000095C4F20200016841F6004441F0010120
:101C600001600168C4F2020401F0010100910099D1
:101C700000950168002241F00201016001684FF403
:101C8000E05601F00201009100990095016841F0D1
:101C900004010160016801F00401009100990095C0
:101CA000016841F08001016000684FF4E05100F0EC
:101CB0008000009000982046FEF782FE0120CDE9CA
:101CC00002050220049001A920460196FEF792FD2C
:101CD00006B070BD80B586B040F2D0000021C2F2DF
:101CE00000004FF08042A72340F2E73C0591CDE988
:101CF0000311CDE90011C0E90023C0E9021C016114
:101D00008161FFF75FFA002818BFFEF76DFB4FF403
:101D10008050029040F2D000C2F2000002A9FFF70A
:101D2000A1FA002818BFFEF75FFB40F2D000C2F214
:101D300000006946FFF7EAF9002818BFFEF754FBD8
:101D400006B080BD80B540F2181041F20001C2F229
:101D50000000C4F2010100234FF00C0C4FF4E132FB
:101D600080E80E00C0E90333C0E905C3C361FFF793
:101D7000B9FE002808BF80BDBDE88040FEF734BB37
:101D8000FEE70000FEE7000070470000704700001B
:101D9000FEF722BE4EF68850CEF20000016841F4F4
:101DA000700101607047000040F2D000C2F20000F4
:101DB000FFF728BB10B540F6FF3E0368C4F2000EE3
:101DC00040F2004C7045C4F2010C27DCB0F1804FAA
:101DD00031D040F20042C4F2000290422BD040F6D3
:101DE0000002C4F20002904225D041F6FF72C4F214
:101DF0000002904229DC70453CDCB0F1804F5FD09E
:101E000040F20042C4F20002904259D040F6000273
:101E1000C4F20002904253D056E000BF40F60042A8
:101E2000C4F20002904206D0604504D00022C4F201
:101E300001029042D9D14A6823F07003134341F65E
:101E4000FF72C4F200029042D5DD43F6FF72C4F285
:101E50000102904222DC42F20002C4F200029042EF
:101E60002ED00022C4F20102904229D0604527D032
:101E70002AE000BF40F60042C4F2000290421FD0A8
:101E800041F60002C4F20002904219D041F600422D
:101E9000C4F20002904213D016E000BF44F20002E8
:101EA000C4F2010290420BD044F60002C4F20102D7
:101EB000904205D044F20042C4F20102904203D1A4
:101EC000CA6823F44073134323F080024B69D1F8AE
:101ED00000E08C681A430260C46240F48062C0F87B
:101EE00028E0624504BF096901630121416110BD19
:101EF000806B0021C185C184FFF746BB81B090F89B
:101F00003E10222920D18368B3F5805F08D1016992
:101F1000002965D000F128010A6803685B680AE0BF
:101F2000014651F8282F13B90369002BF5D0036837
:101F30005B6803F07F0313700A6801320A60C18D89
:101F400001390A04C18501D001B070470168CA682F
:101F500022F02002CA60CA6822F48072CA604A690C
:101F600022F001024A61202280F83E20026B012A01
:101F700040D10022026300BF51E8031F026821F034
:101F8000100142E803130168DBB151E8031F026846
:101F900021F0100142E80313016893B151E8031FD7
:101FA000026821F0100142E8031301684BB151E8C7
:101FB000031F026821F0100142E803130168002B9F
:101FC000DAD10A68D20606D5002200920A68009289
:101FD000496800910099818D01B0FFF7D3BA00BF25
:101FE0000168826A49686FF35F2122F8021B8262EE
:101FF000A5E700BF01B0FFF703BE000010B504461F
:102000000068D4E902C22369016921F440511143F7
:102010000161626943EA0C01E3691143C268194333
:1020200049F20C639A431143C1604169A26921F4EA
:10203000407141F20043114340F48062C4F2010355
:102040009A42416102D1FEF741FE01E0FEF72AFE0D
:10205000E16963681922B1F5004FA0FB02011FD1AD
:102060005A00DB0FFEF700F948F21F51C5F2EB11E1
:10207000A0FB01235A096FF0630302FB0300322324
:1020800003EBC000A0FB01014FF4F87000EA11104F
:1020900000EB0210C1F3421108442168886010BDB2
:1020A0009A009B0FFEF7E0F848F21F51C5F2EB11C2
:1020B000A0FB01235A096FF0630302FB03003223E4
:1020C00003EB0010A0FB0101F02000EA511000EB2F
:1020D0000210C1F3431108442168886010BD00005C
:1020E00040F21810C2F20000FFF750BAFEE70000FD
:1020F000B0B592B0002443F64000CDE90A44CDE9E2
:1021000008440594CDE90344CDE901440094C4F2A8
:1021100002000168022541F080510160006800F072
:1021200080500090009847F200000094C4F2000034
:10213000016841F480410160006800F48040009033
:102140000098012006904FF4803007904FF48000F3
:102150000D9019200E904FF4A870CDE90F050420C2
:10216000119006A80C95FEF7FBFDA8B90F20CDE94C
:1021700001054FF4A05004904FF48050059001A841
:1021800005210394FEF7DEFC002804BF12B0B0BDA9
:10219000EFF3108072B600BFEFF3108072B600004C
:1021A00080B502290ED0012916D099B941F6004018
:1021B000C4F202004FF480510022FEF701FC00201F
:1021C00080BD00BF41F60040C4F202004FF48051D0
:1021D000FEF7EEFB002080BD41F60040C4F2020095
:1021E0004FF480510122FEF7EBFB002080BD000080
:1021F00010B5022904460DD0012915D091B941F638
:102200000040C4F202004FF480510022FEF7D8FBD8
:10221000204610BD41F60040C4F202004FF40061B8
:10222000FEF7C6FB204610BD41F60040C4F2020096
:102230004FF480510122FEF7C3FB204610BD000081
:1022400082B0FEF7D7FBFFF753FFFFF7FBFCFFF76A
:10225000DDFCFFF73FFDFFF775FD01AC20460121D6
:10226000FFF7C6FF20460221FFF79AFF4FF4FA70EE
:10227000FEF7ACFAF6E7F1EE100A4FF6FF71C0F286
:10228000C03120EA010040F04070E1EE100A7047D2
:102290000000000000000000010203040607080916
:1022A00000000000010203040006101600061016CC
:1022B000D02200080000002010000000C401000827
:1022C000E02200081000002050070000E001000894
:1022D00001000000100000000024F40000000000D5
:040000050800018965
:00000001FF
