:020000040800F2
:1000000008140020F902000875600008F95E000875
:1000100071600008C5460008DD63000800000000AC
:100020000000000000000000000000007D600008EB
:10003000D5460008000000007960000881600008D3
:100040001303000813030008130300081303000838
:100050001303000813030008130300081303000828
:100060001303000813030008130300081303000818
:100070001303000813030008130300081303000808
:1000800013030008130300081303000813030008F8
:1000900013030008130300081303000813030008E8
:1000A00013030008130300081303000813030008D8
:1000B00099600008130300081303000813030008E5
:1000C00013030008130300081303000813030008B8
:1000D00013030008D163000813030008130300088A
:1000E0001303000813030008130300081303000898
:1000F0001303000813030008130300081303000888
:100100001303000813030008130300081303000877
:100110001303000813030008130300081303000867
:100120001303000813030008C9460008130300085E
:100130001303000813030008130300081303000847
:100140001303000813030008130300081303000837
:100150001303000813030008130300081303000827
:100160001303000813030008130300081303000817
:100170001303000813030008130300080000000025
:10018000130300081303000800F002F800F0A4F8BD
:100190000AA090E8000C82448344AAF10107DA45E2
:1001A00001D100F099F8AFF2090EBAE80F0013F090
:1001B000010F18BFFB1A43F001031847B098010064
:1001C000D0980100103A24BF78C878C1FAD85207F5
:1001D00024BF30C830C144BF04680C6070470000C1
:1001E0000023002400250026103A28BF78C1FBD840
:1001F000520728BF30C148BF0B6070476E2901F01D
:10020000E783702901F02B85662917F0868465291C
:1002100017F08384672917F08084612917F07F84A1
:1002200003681B0A28BF41F08001692901F094830B
:10023000642901F09183752901F08E836F2901F003
:10024000B984782901F0F784E92901F05384E4297D
:1002500001F05084F52901F04D84EF2901F0B684B6
:10026000F82901F0F6840368DB0928BF41F080011A
:10027000632903F0E683732903F0EB83E32903F09A
:10028000F683F32903F0FB83002070471FB517F0B6
:100290002FFC9DE8030001F061FA01F043FA04002D
:1002A0000020002117F0F0F9401C606000200021C0
:1002B00017F016FAE0600020002117F0FBF920612A
:1002C00000F0B6FB00F0B8F81FBD10B5002000F03C
:1002D00024FE00F016FC10BD01F0FAF91146FFF7FC
:1002E000D5FF16F07FFB02F01CFF03B4FFF7EDFF14
:1002F00003BC01F0E3F900000948804709480047C2
:10030000FEE7FEE7FEE7FEE7FEE7FEE7FEE7FEE7C5
:10031000FEE7FEE704480549054A064B7047000022
:100320008560000889010008080E002008140020DC
:10033000081000200810002053EA020C00F0698029
:100340002DE9F04B4FF00006002B1FBFB3FA83F5E9
:1003500003FA05F424FA05F65E4012BF1643B2FA1A
:1003600082F502FA05F4C5F120051EBF22FA05FC4C
:1003700044EA0C04203556EA044C4FEA144418BFF2
:10038000641C4FF000084FF00009904271EB030C21
:1003900039D3002919BFB1FA81F701FA07F6B0FA8B
:1003A00080F700FA07F6C7F120071EBF20FA07FC06
:1003B00046EA0C062037B6FBF4FCA7EB0507103F16
:1003C00007F01F0BCBF120062CFA06F60CFA0BFBFC
:1003D00044BFB3460026202FA4BF5E464FF0000B5B
:1003E0005BEA060C08BF4FF0010B19EB0B0948EB59
:1003F0000608ABFB027C06FB02CC0BFB03CCC01B4C
:1004000071EB0C01C1E70B46024641464846BDE888
:10041000F08B13B5084318BF4FF0FF300146AFF320
:100420000080BDE81C4070470B460146184600F0AE
:100430006DB870477047704770B5064C7C44064DE8
:100440007D4404E02046016808448047241DAC42F6
:10045000F8D170BD089901000899010070B50446F3
:10046000C068810713D0800601D5A56A04E0A169A0
:10047000606808442169451A204600F095FA002278
:1004800006462946204600F0BDF9304670BD0020E2
:1004900070BD70B510B1BDE87040DFE70025074CB6
:1004A0006E1E07E02046FFF7D9FF00B13546206DEC
:1004B00020F00104002CF5D1284670BD1800002062
:1004C00017F04CB8CA68431C0FD00D4B1A420CD120
:1004D000D3070AD081F825004B680B6300238B609B
:1004E00012F0C06F0B6003D004E04FF0FF30704794
:1004F00042F00072034B1A40034B1A43CA60704724
:1005000080200800BFFFDFFF001048002DE9F04108
:10051000074615460E46102000F020F804000AD0C9
:100520006760C4E9026500F011F8016821600460A9
:100530000020BDE8F0810120FBE7000010B501F0CC
:10054000F1F8001D10BD00BF417101000048704767
:100550004C010020004870471401002070B5064689
:1005600001F0DCF8056806F10B0020F00704B44246
:100570009CBF002070BD2B466A68BAB11068A042CB
:1005800010D304F1080188423CBF5068586007D37B
:100590005168101941601168091B016058601460AE
:1005A000101D70BD13465268002AE7D12146284627
:1005B00001F0C0F80028DED170BD70B50446051FFB
:1005C00001F0ACF80068002C14BF446870BD002C2A
:1005D00018BFAC423CBF20466468F8D301680A18D3
:1005E000AA4218BF456003D12A680546114401603C
:1005F00028684119A1421CBF6C6070BD61686960C8
:1006000021680844286070BD70B50D460646041F79
:1006100001F084F80268BDB1DEB105F10B0020F0F5
:100620000701A9423CBF002070BD23688B4238BF40
:10063000506813D35A1A082A36D3601840F8042B8E
:100640002160FFF7BAFF2FE03046FFF7B6FF00202A
:1006500070BD2846BDE87040FFF780BF002818BF76
:10066000A0423CBF02464068F8D303EB040C84452B
:100670001CD1D0F800C06344994217D8A3EB010CF9
:10068000BCF1080F0DD3D0F804C06318C3F804C040
:10069000D4F800C000686044401A186021605360BC
:1006A00002E0236040685060201D70BD2846FFF7BF
:1006B00055FF050008D031462068021F284600F08B
:1006C00018FD201DFFF779FF284670BD10B501F019
:1006D0007BF800F0080010BD2DE9F0410F461346ED
:1006E00015460A4606460021084601F0B5F80446BC
:1006F000401CFFF733FF306030B1611C2B463A4697
:10070000BDE8F04101F0A8B84FF0FF30BDE8F0813E
:100710000FB41CB50C0007AA009007D04142A142BB
:1007200002D32044401E01E04FF0FF30074B7B44D2
:1007300069460190069801F064F90021002C01D06F
:10074000009A11701CBC5DF814FB0000F712000049
:100750007CB51D4616460C00009007D04142A142D0
:1007600002D32044401E01E04FF0FF30064B7B4493
:100770002A4669460190304601F043F9002C02D028
:10078000009A002111707CBDB712000000B58DB039
:10079000099000920B904FF0FF300A9000200C90CF
:1007A000054878440690054878446A46079009A8A9
:1007B00001F068FF0DB000BDFF1E0000171F000014
:1007C0000FB400B58DB010A9099000910B904FF0B7
:1007D000FF300A9000200C900648784406900648A6
:1007E00078446A4607900F9909A801F04BFF0DB0B5
:1007F0005DF814FBC71E0000DF1E000001F0CEBF35
:1008000002F014B82DE9F041044616460D4647693A
:10081000007B80072ED0384600F03BFF50BB3EB334
:10082000012E02D0022E25D104E0204600F066F809
:1008300005441DE0384600F03AFFE168002841F029
:100840001001E16005DA204600F07AF80120BDE8E9
:10085000F081C9030BD56268E16A914200D8114664
:10086000A26911442269891A814200DD08460544C3
:10087000002D01DA0220EAE7E16A6068E26881425D
:1008800006D29103E06203D522F4003141F0100258
:10089000A6690027AE4213DCE16A814201D90B460A
:1008A00000E0034603EB060C2369ACEB030CAC45FC
:1008B00006DD814201D98C4600E084469C4505D185
:1008C000A760276042F02000A5620DE0AD1BE6693D
:1008D000AE1B8142A66000D90846C01A281A2060C3
:1008E0005819606022F0200003490840E0600020B1
:1008F00084F84870ABE70000BFCFD7FF10B50146C2
:10090000C268900703D0900607D5886A0AE0FFF70F
:1009100021FE01210160881E10BD8B6948681844C2
:100920000B69C01A91F848301BB191F84910401A70
:1009300010BD1103FCD50028FADD401E10BD0000DB
:10094000C16821F4001141F08001C1600021816083
:10095000016070472DE9F047814614460E464FF07E
:10096000FF383248D5685769054209D03846A16931
:1009700000F095FE002811DB2C48C0430540E560DF
:100980002B4632464946384600F074FEA16920F0F5
:100990000042B21A11440028A16103D02046FFF79B
:1009A000CFFF4046BDE8F08770B504460569C06AD0
:1009B0006168884200D80846E16821F42011E160AE
:1009C000C90312D5A84208D02246411B2846FFF78A
:1009D000C1FF10B14FF0FF3070BD0020E562C4E9E7
:1009E0000150E06820F48030E060002070BD10B558
:1009F0000446C06820F02000E060A16AA069884237
:100A00000DD02046FFF7D0FFE06820F4405040F0C2
:100A10001000E060A06AA0612069E062606044F2BA
:100A20004001E0688843E06010BD00001000020053
:100A300010B54248542100F0F5FB4148542100F024
:100A4000F1FB4048542100F0EDFB3F493B483C4A54
:100A50003F4B08603D490A603A491960531C0365E1
:100A6000481C1065012008653B48344A39A1784488
:100A700000F07AF820B9384878440A3802F061FB6F
:100A800037482F4A35A1784400F06EF820B9344831
:100A900078440A3802F055FB32482A4A2FA178449C
:100AA00000F062F820B92F4878440A3802F049FB78
:100AB00040232248DC000021224602F071FA20B1D6
:100AC00025487844543802F03CFB1D482246402318
:100AD000002102F065FA20B121487844543802F030
:100AE00030FB184822461023002102F059FA002852
:100AF00006D01C487844BDE81040563802F021BBAF
:100B000010BD104870B5006D20F001040B4800F0D6
:100B1000A3F80B4800F0A0F80A4800F09DF809E09F
:100B2000206D20F00105204600F096F82046FFF7E2
:100B300044FD2C46002CF3D170BD000018000020AD
:100B40006C000020C00000200000002004000020F5
:100B50000800002072000000AC7101007700000066
:100B600098710100847101002DE9F0410C46164690
:100B7000070047D0104600F06FF82078611C61280C
:100B80000AD0722802D077283CD102E00125002447
:100B900005E00225042402E0082448F2020511F8C9
:100BA000010B2B2806D0622809D011F8010C7428FB
:100BB0000AD00BE045F0030544F00204EFE745F0EE
:100BC000040544F00104EAE744F0100438462146E5
:100BD00000F040FD411C15D00021316171604FF4DF
:100BE0000071F560F1617061200704D53046022282
:100BF0000021FFF707FE306D40F001003065304600
:100C0000BDE8F0810020FBE72DE9F0410D460646E6
:100C1000104C206DC10704D0410804D020F001041D
:100C2000F7E722460EE05420FFF798FC07000ED0AD
:100C3000206D47F00101084354212065384600F03B
:100C4000F1FA3A4629463046BDE8F0418CE70020EB
:100C5000D6E70000180000202DE9F04704464FF0C9
:100C600000094FF0FF37C568D4E90486A80707D00C
:100C70002046FFF799FE304600F0F6FC002802DA25
:100C80003846BDE8F087280502D54046FFF795FCB9
:100C90004C21204600F0C6FA206D20F001002065AE
:100CA0004846EEE72DE9FE430E46174680460021F2
:100CB0000846AFF3008005460020009001905EB129
:100CC00030784FF0FF3900B1AFB11DB1D5E9000167
:100CD000CDE9000100240CE00020BDE8FE83315D79
:100CE0006A46641C02A802F0D8F9411C03D001280E
:100CF00003D0BC42F3D34846EFE71DB1DDE9000164
:100D0000C5E90001B8F1000F03D0BDF80810A8F83C
:100D10000010BDF808000028DFD02046DDE770B5E0
:100D20000C4605460AB1104603E004210020AFF34B
:100D3000008022462946BDE870400346002000F0AE
:100D40003DB82DE9F84F9146884605464FF000041E
:100D50005FEA030A0E682BD107210020AFF3008061
:100D6000824625E016F8011B5246684602F095F9C6
:100D70000746401C0FD0BF1C1AD01DB1BDF80000A3
:100D800025F81400BDF80000641C58B1002DE9D00E
:100D9000C8F800600EE0FFF7DDFB04210160384673
:100DA000BDE8F88F15B10021C8F80010601EF7E704
:100DB000002DD7D04C45D5D32046F1E702F014B929
:100DC00002F04EB92DE9F84F9B46904689460546FC
:100DD0000024DDF828A00E685FEA0A0033D109215B
:100DE000AFF3008082462EE0B8F1000F1AD05246D1
:100DF000684616F8011BA8F1010802F04EF90746F3
:100E0000401C13D0BF1C1ED01DB1BDF8000025F83A
:100E10001400BDF80000641C78B1002DE4D0C9F8BE
:100E2000006012E09DB1C9F8006010E0FFF792FB8E
:100E3000042101603846BDE8F88F15B10021C9F8DA
:100E40000010601EF7E7002DCED05C45CCD32046C5
:100E5000F1E72DE9FF4F91468A46804683B0002492
:100E6000109F0D68A7BB0A210020AFF30080074642
:100E70002EE017B1D7E900B102913A4668462988B9
:100E800002F02BF90646401C0BD0B8F1000F16D02B
:100E90000698311981420CD9EFB10299C7E900B126
:100EA00019E0FFF757FB04210160304607B0BDE8A9
:100EB000F08F08EB04003246694600F093F828886A
:100EC000344450B1AD1CB8F1000F01D0CAF8005045
:100ED000B9F10109CDD22046E8E7641EB8F1000F50
:100EE000F9D00021CAF80010F5E710B5FFF726FB8E
:100EF000006890F80111012901D0012010BDD0F83F
:100F00000B0110BD10B5002002F014F9FFF7DDF958
:100F1000BDE81040012000F0D1BB2DE9F0410646AC
:100F2000FFF714FB8046454613E016B1E068B04277
:100F30000ED120682860D4E90101D8F800708847F4
:100F40002046FFF73AFBD8F80000B842EBD100E0AA
:100F500025462C68002CE8D1BDE8F08110B5431C73
:100F600002E010F8011B71B18107FAD14FF0013294
:100F700002C88C1A8C4314EAC211F9D0C01A0A06AE
:100F800003D0C01E10BDC01A10BD0A0401D0801EBF
:100F900010BD0902FCD0401E10BD520002F0D8B8AE
:100FA000520002F0D9B82DE9F0410F46144605462B
:100FB0008046800704D084B12F80541E08F10205BA
:100FC000022C0AD3284624F0010647EA07427100A2
:100FD00000F02AF9A41B05EB460504B12F8040461A
:100FE000BDE8F081032A40F2308010F0030C00F0DD
:100FF000158011F8013BBCF1020F624498BF11F853
:1010000001CB00F8013B38BF11F8013BA2F104020B
:1010100098BF00F801CB38BF00F8013B11F0030383
:1010200000F06780083AC0F0088051F8043B083AA5
:1010300051F804CBA0E80810F5E7121D5CBF51F889
:10104000043B40F8043BAFF30080D20724BF11F803
:10105000013B11F801CB48BF11F8012B24BF00F868
:10106000013B00F801CB48BF00F8012B7047431A41
:1010700028BF9A427FF6B6AF10441144032A40F2CB
:10108000268010F0030F1EBF11F8013D521E00F81C
:10109000013D10F0030F7FF4F6AF11F0030300F0F1
:1010A0006D80083AC0F00B8051F8043D083A51F8C1
:1010B00004CD40F8043D40F804CDFFF7F3BF121D06
:1010C0005CBF51F8043D40F8043DAFF30080D20707
:1010D00024BF11F8013D11F801CD48BF11F8012CD2
:1010E00024BF00F8013D00F801CD48BF00F8012CF5
:1010F000704710B5203AC0F00B80B1E81850A0E856
:101100001850B1E81850A0E81850203ABFF4F5AFD5
:101110005FEA027C24BFB1E81850A0E8185044BF31
:1011200018C918C0BDE810405FEA827C24BF51F89E
:10113000043B40F8043B08BF7047D20728BF31F892
:10114000023B48BF11F8012B28BF20F8023B48BFE3
:1011500000F8012B7047431A28BF9A427FF6C9AFA7
:101160001044114410F0030F1EBF11F8013D521E30
:1011700000F8013D10F0030F7FF4F6AF103AC0F015
:101180000A8010B531E9185020E91850103ABFF420
:10119000F9AFBDE81040530724BF31E9081020E93A
:1011A000081044BF51F8043D40F8043D12F0030F0D
:1011B00008BF7047D20728BF31F8023D48BF11F879
:1011C000012C28BF20F8023D48BF00F8012C7047D1
:1011D00002F0FF0343EA032242EA024200F002B8AF
:1011E0004FF000020429C0F0128010F0030C00F050
:1011F0001B80CCF1040CBCF1020F18BF00F8012BCE
:10120000A8BF20F8022BA1EB0C0100F00DB85FEA9B
:10121000C17C24BF00F8012B00F8012B48BF00F867
:10122000012B70474FF0000200B5134694469646D6
:10123000203922BFA0E80C50A0E80C50B1F12001E9
:10124000BFF4F7AF090728BFA0E80C5048BF0CC097
:101250005DF804EB890028BF40F8042B08BF7047F5
:1012600048BF20F8022B11F0804F18BF00F8012B67
:10127000704700000000000030B44FF0013C50F80F
:10128000042B51F8043BCCFA52F4D51A20D1FCB906
:1012900050F8042B51F8043BCCFA52F4D51A17D16C
:1012A000B4B950F8042B51F8043BCCFA52F4D51AD7
:1012B0000ED16CB950F8042B51F8043BCCFA52F41F
:1012C000D51A05D1002CDAD030BC4FF000007047A1
:1012D00029BAB1FA81F111F01801D1F1200084404E
:1012E000F2D1CA40CB4012F0FF0213F0FF0330BC32
:1012F000D01A704770B5054601B90721541A241D4C
:10130000B4F5B67F09DD286800F05DF9A04204DC81
:101310002868401C2860012070BD002C05DA286870
:10132000401E286000F04FF90444072094FBF0F0C1
:10133000401C70BD2DE9F04F1F4615468B46824676
:10134000002689B000F0EEF9D0F810800024BBF13F
:10135000000F70D015F8010B10B125280DD10FE04A
:1013600024B1641E06A850F82450F3E7002130464B
:101370000AF8061009B0BDE8F08F0AF80600C7E0C9
:10138000E94615F8010B592870D023DC49286ED0A6
:1013900014DC44286DD008DC2528EED041283ED04E
:1013A000422849D043282CD156E04528E9D0462888
:1013B00069D0472876D0482823D17AE04D380C28C8
:1013C0001FD2DFE800F0881E061E1E9BA0A9B3B541
:1013D000C1CFD6E75A38212813D2DFE800F0111226
:1013E00012121212121A263745501259261274126E
:1013F00012797E128012891296A212B3BDCB11000F
:10140000A8E725200AF80600761C5E4513D26D1E5B
:10141000A0E7D8F80010BA69D8F8240011E0D8F88D
:101420000410BA69D8F828000BE0D8F808103A6917
:10143000D8F82C0005E0B2E0D8F80C103A69D8F8DA
:10144000300002FB001101EB0809AAE006A840F8F1
:101450002450D8F818108AE07969642091FBF0F2E2
:101460001332484668A192E0FA6889E08AE022E0F7
:10147000FFE706A840F8245065A5641C6AE7FA68EF
:1014800066A1484683E006A840F8245064A5F4E726
:10149000384600F0ADF8642190FBF1F201FB120236
:1014A00058E0FFE7384600F0A3F802465FA168461F
:1014B0006DE0BA6864E0B8680C210B3090FBF1F283
:1014C00001FB120205E0FA6959A14846521C5EE090
:1014D0003A694DA1F9E77A6852E00A2116E0B86846
:1014E0000C2802DAD8F81010ADE7D8F81410AAE7E3
:1014F00006A840F82450D8F8341038E006A840F880
:1015000024504DA5B9E73A683AE009210AF80610D7
:10151000761C5E45B2D342E006A840F8245048A5A8
:10152000ABE7BA6902B9072248A1AAE700210CE09B
:10153000786900F26C700890D7E9061208A8FFF7E6
:10154000D9FE06E0BA69EFE70121D7E9062000F0ED
:101550002EF802462CA1AAE706A840F82450D8F895
:101560001C1004E006A840F82450D8F8201001EB25
:10157000080582E77969642091FBF0F200FB121202
:1015800021A17EE77A69484628A102F26C7200F038
:101590004DF906E00AF80600761C5E4501D30020EE
:1015A000E8E619F8010B00283FF4DFAEF2E7511A24
:1015B00000D5C91D401A01D500207047072190FBB6
:1015C000F1F0401C704781070CD1642190FBF1F2CF
:1015D00001FB120151B94FF4C87190FBF1F201FB0C
:1015E000120018B1002000F26D1070470120FAE7D8
:1015F00008B5416901F26C710091D0E906126846A4
:10160000FFF778FE009808BD252E32640000000028
:10161000256D2F25642F25790000000025326400F8
:1016200025592D256D2D256400000000256400003E
:10163000252E33640000000025483A254D000000A7
:1016400025483A254D3A255300000000252E3164E7
:10165000000000000EB5CDE90001FFF77FFC02900D
:1016600069460120ABBE0EBD08B569460090022058
:10167000ABBE08BD1FB58DE8070069460520ABBEAF
:1016800004B010BD1FB58DE80F0069460620ABBE43
:10169000F6E708B5694600900920ABBE08BD1CB549
:1016A000CDE9000169460A20ABBE1CBD704708B5F4
:1016B000694600900C20ABBE08BD0000014918200F
:1016C000ABBEFEE726000200004870471401002070
:1016D0007546FFF7F9FFAE4605006946534620F010
:1016E0000700854618B020B5FEF714FEBDE820407F
:1016F0004FF000064FF000074FF000084FF0000BCE
:10170000AC46ACE8C009ACE8C009ACE8C009ACE83C
:10171000C00921F007018D4670470000004870475E
:101720001C010020004870473401002070477047BA
:101730007047704738B504460A4600206946AFF343
:101740000080002808BF38BD02460099204601F0FD
:1017500008FD012038BD012002F0EEBCF8B5AFF362
:101760000080054600200C46102000BF0646A81940
:10177000A0420DD9324669460020AFF30080070031
:1017800008BF02F0D9FC0098A04218BF0546C41952
:10179000FFF7C4FF05600746F01D20F0070046195B
:1017A000284600F00AF8B44208BFF8BDA21B314633
:1017B0003868BDE8F84001F0D4BC00210160C0E900
:1017C000011070471020704710B50446FF2801D95A
:1017D000002010BDFEF7B2FE0068005D10F0980F0B
:1017E00003D0C10701D140F4806010F4846F01D0B0
:1017F00040F4006010F0BA0F01D040F4807010F097
:10180000BE0F01D040F40070810604D5010602D459
:1018100040F0800001E020F02000C10701D0410627
:1018200001D5092CD5D140F4805010BD0FB41CB5A2
:10183000084B06AA7B4469460090059800F0E1F841
:1018400004460020694602F0EDF820461CBC5DF815
:1018500014FB0000ED2100007CB51D4616460C006F
:10186000009007D04142A14202D32044401E01E033
:101870004FF0FF30064B7B442A46694601903046C4
:1018800000F0BFF8002C02D0009A002111707CBD3E
:10189000AF01000070B5044685690068C10601D536
:1018A000302600E02026C00707D070BDD4E9012112
:1018B00030469047206A401C20626D1EF6D570BDF0
:1018C00070B5044685690078C00707D170BDD4E9BA
:1018D000012120209047206A401C20626D1EF6D511
:1018E00070BD09684A0501D540B27047C905FCD5ED
:1018F00000B2704709684A0501D5C0B27047C905F2
:10190000FCD580B2704770B50C460546012A05D05B
:101910002878800600D5EA69002302E0012305E06B
:101920005B1C934202D2E05C0028F9D1A869E6185A
:10193000C01AA861286A184428622846FFF7AAFF3F
:1019400004E0D5E9012114F8010B9047B442F8D323
:101950002846FFF7B5FF70BD2DE9F041064600248B
:1019600010687529314616A510D0FFF7BAFF002878
:1019700002DA404213A507E031688A0701D512A5B3
:1019800002E0490704D511A5012401E0FFF7B2FFE9
:1019900000210A2206F1240709E0B0FBF2FCB0FBAB
:1019A000F2F302FB1C00303078541846491C002822
:1019B000F3D123462A463046BDE8F04101F04CBC45
:1019C000000000002D0000002B000000200000009F
:1019D00011680268006A530501D508700AE0D30552
:1019E00001D5088006E0130603D5C217C1E900023D
:1019F00000E008600120704701694A1C0261087814
:101A0000704700B58FB0CDE901310021059105493E
:101A10007944CDE903101146684600F02BF90FB068
:101A200000BD0000E5FFFFFFD1E900239A4202D28A
:101A3000531C0B60107070472DE9FF5F15468A46F6
:101A40000446DFF8AC80F8440027D8E900103E4691
:101A5000CDE9001010E03AF816106A4602A801F02D
:101A60003CFB411C07D02178890603D5E26939186F
:101A700091420DD80744761C2078800602D5E06993
:101A8000B84205DDAE42E6DB3AF816000028E2D1A6
:101A9000A069C01BA0612046FFF7FCFED8E900103A
:101AA000CDE90010002017E03AF818106A4602A8A5
:101AB00001F013FBB0F1FF3F81460BD000250DF183
:101AC000080B05E0D4E901211BF8050090476D1CC7
:101AD0004D45F7D308F10100B0428046E4DB206AAF
:101AE000384420622046FFF7EBFEBDE8FF9F000070
:101AF000E26101002DE9F0418046D21D22F007028B
:101B00000025D2E90002F52915A614D0011E72F1B4
:101B1000000106DA0023D0EB030063EB020211A6FA
:101B200008E0D8F800108B0701D50FA602E049079E
:101B300001D50EA601251146002408F1240704E072
:101B400001F03CFB30323A55641C50EA0102F7D1F7
:101B50002B46324621464046BDE8F04101F07CBBB1
:101B6000000000002D0000002B00000020000000FD
:101B700030B4002100F1240408E002F00705D20887
:101B8000303542EA4372DB086554491C52EA0305CA
:101B9000F3D10468002310A2250708D504F020041F
:101BA0000C4304D0C46901230CA2641EC46130BC80
:101BB00001F052BB10B5044621461068FFF79AFEAB
:101BC00002462046BDE810400023D1E7D21D22F096
:101BD0000701D1E90023CBE700000000300000003E
:101BE000F0B40D460188090502D5214C7C4402E081
:101BF0001F4C7C440E34002100F1240608E002F062
:101C00000F071209E75D42EA03721B097754491C6A
:101C100052EA0307F3D102780023120704D5702D8E
:101C200006D009B1022311342246F0BC01F014BBE6
:101C300001231034F8E770B504460D4621461068BC
:101C4000FFF758FE024629462046BDE870400023B3
:101C5000C6E7D21D22F00703D3E90023C0E70368DB
:101C6000126843F0200303600823C3610023B7E731
:101C7000446001002DE9F05F894604464FF0000AF8
:101C8000DFF874B1FB44C0F820A02046E168884723
:101C9000002874D0252806D0D4E901219047206A75
:101CA000401C2062F1E700265F462046E168884735
:101CB0002028054607DB312D05D2781910F8200CB5
:101CC00008B10643F1E7B00701D526F00406C4F8D1
:101CD0001CA00027C4F818A02A2D09D0284615F00A
:101CE00036FC38B304EB8708303DC8F8185019E0CB
:101CF00059F8041B204604EB87029161E16888478C
:101D0000012F054618D1E069002820DA26F02006C8
:101D10001DE0D8F8180000EB800005EB40003038DB
:101D2000C8F818002046E1688847054615F00FFC02
:101D30000028EED1012F0AD02E2D08D12046E168CF
:101D400088477F1C0546022F46F02006C4DBA069A9
:101D5000002803DA404246F00106A061F00701D0F6
:101D600026F010066C2D0BD0682D09D04C2D39D0E3
:101D70006A2D35D0742D35D07A2D33D016E038E069
:101D8000E1682F4620468847B842054609D16C2FA6
:101D900026D04FF48060E168064320468847054618
:101DA00004E06C2F1AD04FF4807006430DB3A5F1F8
:101DB0004100192802D8203546F400664A462946D3
:101DC000204626604E46FEF719FA80B101280BD056
:101DD000F61D26F0070000F1080956E74020E4E769
:101DE0008020D8E70020D6E706F104094DE7284611
:101DF00052E7206ABDE8F09FD45F01002DE9FF4F54
:101E00001C4691464FF0FF3581B000218A46884636
:101E1000D4E90167A16902986D1C8847216A83464D
:101E200088470028F6D1BBF1FF3F0CD0002F26F4E5
:101E3000C0661ADD700615D5BBF12B0F0AD0BBF1B9
:101E40002D0F0FD104E04FF0FF3005B0BDE8F08F4B
:101E500046F48066A16902986D1C88477F1E834600
:101E6000002F02DDBBF1300F03D0B9F1000F2AD0F3
:101E700025E0A1696D1C02987F1E46F40076884714
:101E8000002F834605DDBBF1780F06D0BBF1580F5C
:101E900003D0B9F1000F10D011E0B9F1000F02D05A
:101EA000B9F1100F0BD1A1696D1C02987F1E26F4A9
:101EB000007688478346102000E0082081464FEADC
:101EC000E970009017E00A20F8E74346AAFB0928CA
:101ED000DDF800C07F1E03FB098046F4007605F1A3
:101EE00001050AFB0C0112EB0B0A029841EBEB789F
:101EF000A16988478346002F06DD4946584601F010
:101F0000C2FD5FEA000BE0D5E16902988847B005A1
:101F100002D46FF0010098E7F00718D1700610D5D1
:101F20005146700505D50023D1EB030163EB080290
:101F300000E042462068031D23600068C0E90012EB
:101F400005E02068011D21600068C0E900A828465E
:101F50007BE72DE9FF5F1D464FF0FF3B91464FF0B9
:101F600000085F46D5E90146A96901987F1C8847AA
:101F7000296A824688470028F6D1BAF1FF3F0CD083
:101F8000002E24F4C06419DD600614D5BAF12B0FBD
:101F900009D0BAF12D0F0ED103E0584604B0BDE8C8
:101FA000F09F44F48064A96901987F1C8847761EDD
:101FB0008246002E02DDBAF1300F03D0B9F1000FD6
:101FC00026D032E0A969761E01987F1C44F4007483
:101FD0008847002E824605DDBAF1780F06D0BAF1A7
:101FE000580F03D0B9F1000F10D01EE0B9F1000F67
:101FF00002D0B9F1100F18D1A969761E01987F1C83
:1020000024F4007488478246102002E0082000E093
:102010000A20814609E0A96908FB0908761E019893
:102020007F1C44F4007488478246002E05DD494633
:10203000504601F028FD0028EDDAE969019888474B
:10204000A00502D46FF00100A8E7E00725D16006E3
:1020500013D5600502D5C8F1000000E040462968AC
:102060000A1D2A600968220501D5087015E02207BB
:1020700001D5088011E008600FE02868011D296083
:102080000068210502D580F8008006E0210702D50E
:10209000A0F8008001E0C0F8008038467EE72DE916
:1020A000FF5F4FF000089946144646469169D2E911
:1020B00001A7DDF838B001988847054659EA0B00BA
:1020C00005D009E0A1690198761C88470546216A78
:1020D000284688470028F5D1681C03D05FEACA70FB
:1020E00005D015E04FF0FF3004B0BDE8F09F206848
:1020F000011D2160D0F800800AE05FEACA7001D1BA
:1021000008F8015BA169761C01987F1E8847054687
:10211000002F1ADD681C18D0B9F1000F0DD0E81798
:1021200005EBD060421120F01F0059F822102A1A46
:10213000012090400142E0D107E0BBF1000FDCD16B
:102140002846216A88470028D7D0E1690198884746
:10215000BBF1000F07D1002E05DD5FEACA7002D186
:10216000002188F80010A068B84203DDBBF1000F21
:1021700003D017B16FF00100B6E73046B4E70000B6
:102180002DE9FF4F06468BB00878FF2806D0491C82
:102190002D2805D000244FF0000908E000200CE0B5
:1021A0000124F8E709EB8903491C00EB430908788F
:1021B000FF28F7D114B1C9F100008146107800253D
:1021C0002C46AA4629462D2801D02B2804D1521C82
:1021D0002D2813D0002082468B461078FF280FD080
:1021E0004FF0000C0A21521CA5FB017804FB018171
:1021F00005FB0C11C5194BEB0104EEE70120EAE7E2
:10220000002108464FF00000BAF1000F02D000EBA9
:1022100080004008C0F38157012F01DD4FF0FF37E8
:102220000E9955EA040009EB01080BD04FF00209A2
:1022300018F5FA7F16DA4FEACA70002F706008DDD1
:10224000012007E04FEACA70C6E900B00FB0BDE850
:10225000F08F00203060FEF77DF9C0F80090182163
:10226000084616E0B8F5FA7F18DD002F02DAF748C5
:10227000784401E0F6487844D0E90010C6E900103F
:1022800040EACA707060FEF765F9C0F8009014214A
:1022900008460FB0BDE8F04F15F03CBC00210846E1
:1022A0004FF00000B8F10001099002DAC7F1000216
:1022B00000E03A4601DAC8F1000106A801F01CFE70
:1022C00006AB93E8070003AB83E8070044F23E0047
:1022D0005BEA04010090584604D144F21E012C46EA
:1022E0005D460091210C0904014306D100992404A4
:1022F00044EA15442D041039009104F07F41014354
:1023000006D10099240244EA15642D02083900918F
:1023100004F07041014306D10099240144EA157488
:102320002D01091F009104F04041014306D100999D
:10233000A40044EA9574AD00891E009104F00041A8
:10234000084304D100986D196441401E00904FF07D
:1023500001033A466846B8F1000FCDE9014503A9EB
:1023600002DD14F08CFE01E014F05FFEBAF1000F04
:1023700004460D4601D084F00044002108464FF089
:102380000000099940F2FF77484010F00C0F07D188
:1023900024F00040284303D0C4F30A50B84212D1BD
:1023A000FEF7D8F8C0F80090C4F30A50B8420AD13A
:1023B000A8487844D0E90010C6E9001004F00041B4
:1023C0000843706042E7C6E900543FE72DE9FF4F3C
:1023D0001F464FF0000A4FF0FF38454691B0D7E94D
:1023E0000146CDF83CA0FFF79DF9C0680168405C4C
:1023F0001090B96912986D1C8847396A81468847E0
:102400000028F6D1B9F1FF3F0AD0002E24F4D064A1
:1024100011DDB9F12B0F08D0B9F12D0F0BD102E06E
:10242000404615B013E744F48064B96912986D1CF6
:102430008847761E8146600504A901D52D2000E05D
:102440002B20002E01F1010B0DF130088DF810004A
:102450003FDDB9F1690F08D0B9F1490F05D0B9F1E5
:102460006E0F02D0B9F14E0F1CD13B4601A800956A
:1024700080E85002DDE912126FF0020015F0B5FBA2
:10248000C11CCED10EE0B96912986D1C88478146F7
:102490001398761E44F4007405600F98401C002EBB
:1024A0000F9016DDB9F1300FEDD0B9F1780F02D0F1
:1024B000B9F1580F0DD10F9801280AD13B46CDE94B
:1024C0000054DDE91212001F029615F08CFBC11CAE
:1024D000A7D1109989453ED144F0800406E01399B4
:1024E000681CAAF1010A44F400740860B9696D1C03
:1024F0001298761E884730288146F0D02BE010993C
:10250000894505D1200603D4761E44F0800418E0E6
:10251000484615F01CF808B3761E0DF123029345CA
:10252000A9F1300044F4007406D20BF8010B200628
:1025300007D5AAF1010003E0200602D40AF1010048
:102540008246A00502D51399681C0860B9691298E3
:102550006D1C88478146002ED1DC53E0002E51DDF2
:10256000B9F1650F02D0B9F1450F4BD1A00549D59E
:10257000B9696D1C1298761E24F440748847002EA9
:1025800081460CDD2B2804D0B9F12D0F07D144F47E
:102590008074B96912986D1C8847761E8146E005E3
:1025A00001D52D2100E02B2108F8011BCDF800807A
:1025B00021E0761E0DF13901884544F400740CD2F7
:1025C000A9F1300010F0FF0088F8000002D1009956
:1025D000884509D908F1010806E0E00501D51E4843
:1025E00001E042F20F708246B96912986D1C88476B
:1025F000814613980560002E04DD484614F0A7FFBD
:102600000028D6D1F96912988847FF2053468BF8E5
:10261000000088F8000000200A900B9004AA0CA982
:102620000AA8FFF7ADFDA00502D46FF00100F8E69F
:1026300014F0240F12D0E0071CD13868DDE90A122B
:10264000031D3B600068C0E9001213E02078010020
:1026500012780100D6760100F1D8FFFF0AA968467A
:1026600014F062FFE00705D13868009A011D396057
:10267000006802602846D4E60268114413780160BD
:1026800018467047D160054979445161044979443D
:10269000116200211161114601F004BAEDFFFFFF44
:1026A000B50B0000426842B1016811F8013B23B14B
:1026B000521EC0E90012184670470121C160881EF1
:1026C000704742685AB1C368016843B983688B4256
:1026D00005D0491E521CC0E90012002070474FF07F
:1026E000FF3070470FB40B0010B54FF000048AB0F4
:1026F0000FA900910E99CC60234C7C44234A7A4464
:10270000CDE9064200D004236FF00042CDE901324A
:102710001F4A7A446B4608920246002015F061FA7F
:102720000AB010BC5DF814FBF0B507464FF0FF305F
:102730001E4615460C463B4685B06A460091CDE9DB
:10274000010131460020049004A8FFF7CBFF049953
:102750000346601825B109B1024600E022462A600E
:1027600000290ED0002B02DD0099814209D03B46A2
:102770006A463146001B0094CDE9010404A8FFF726
:10278000B1FF05B0F0BD0000A7FFFFFFC1FFFFFFD5
:10279000310B000000230360FFF7C6BF2DE9F047AF
:1027A00091460E4680460446002514F8017B2FB161
:1027B000FDF7C4FE0068C05DC007F6D12B2F02D024
:1027C0002D2F1ED0641E4A463146204601F024FBC0
:1027D00026B13268A24201D1C6F800804FF002044F
:1027E0006A0518D50023D0EB030563EB01025D1BDE
:1027F000934109DB0023D0EB030063EB0101BDE84B
:10280000F08745F48065DEE7FDF7A4FE0460002054
:102810004FF00041F3E7021E71F10002EFDAFDF71D
:1028200099FE04604FF0FF304108E8E72DE9F05FC2
:1028300093460F46804604460026FDF78BFED0F8EF
:102840000090824614F8015B2DB1FDF777FE006819
:10285000405DC007F6D12B2D02D02D2D1FD0641E58
:102860000021CAF800105A463946204601F0D4FA31
:10287000024627B13868A04201D1C7F80080DAF8D3
:10288000000002280ED0CAF8009070050AD500207A
:102890000346D2EB000063EB0101BDE8F09F46F474
:1028A0008066DDE71046F8E72DE9FF4F4FF000089E
:1028B0009A461446C146464683B0D2E901B7CDF8E0
:1028C0000080CDF8048091690498884710990546E6
:1028D0005AEA010005D009E0A1690498761C8847EE
:1028E0000546216A284688470028F5D1681C03D090
:1028F0005FEACB7005D02AE04FF0FF3007B0BDE8AB
:10290000F08F2068011D2160D0F800801FE002A830
:102910006A46E9B200F0C1FB411C07D0801C09D017
:102920004FF000095FEACB7007D00AE0E169049834
:1029300088473EE04FF0010904E0BDF8081028F890
:10294000021B7F1EA1690498761C88470546002F4C
:102950001ADD681C18D0BAF1000F0DD0E81705EB8E
:10296000D060421120F01F005AF822102A1A0120CC
:1029700090400142CBD107E010980028C7D12846EB
:10298000216A88470028C2D0E16904988847B9F1D4
:10299000000F0ED1109830B9002E04DD5FEACB7025
:1029A00001D1A8F80000A068B84202DD109818B163
:1029B00017B16FF00100A1E730469FE72DE9FF4F07
:1029C0004FF000089B461446454683B0D2E9019675
:1029D000CDF80080CDF804809169DDF848A0049816
:1029E000884707465BEA0A0005D009E0A169049818
:1029F0006D1C88470746216A384688470028F5D16C
:102A0000781C03D05FEAC97005D01BE04FF0FF309F
:102A100007B0BDE8F08F2068011D2160D0F800806C
:102A200010E05FEAC97007D16A464046B9B200F0CB
:102A300054FB411C31D08044A1696D1C0498761E62
:102A400088470746002E14DD781C12D0BBF1000029
:102A500007D03B46DDE9101201F03FFA0028E0D133
:102A600007E0BAF1000FDCD13846216A8847002818
:102A7000D7D0E16904988847BAF1000F06D1002D3C
:102A800004DD5FEAC97001D188F80000A068B04297
:102A900003DDBAF1000F03D016B16FF00100B7E704
:102AA0002846B5E72DE9FF5F9B46144600273D46C3
:102AB0009169D2E90196DDF840A0019888478046E7
:102AC0005BEA0A0005D009E0A16901986D1C8847FE
:102AD0008046216A404688470028F5D1B8F1FF3F7B
:102AE00003D05FEAC97005D014E04FF0FF3004B0A6
:102AF000BDE8F09F2068011D216007680AE05FEAD9
:102B0000C97001D127F8028BA1696D1C0198761E4E
:102B100088478046002E15DDB8F1FF3F12D0BBF18B
:102B2000000007D04346DDE90E1201F0D6F9002877
:102B3000E5D107E0BAF1000FE1D14046216A8847AC
:102B40000028DCD0E16901988847BAF1000F05D16F
:102B5000002D03DD5FEAC97000D13880A068B04263
:102B600003DDBAF1000F03D016B16FF00100BEE72C
:102B70002846BCE770B50D4601461446D368506937
:102B80002A46FEF77FFD002807DA411C07D0E168DE
:102B900020F0004041F48041E160281A70BD2046D9
:102BA000FDF7CEFE4FF0FF3070BDC168002202601D
:102BB00021F4805141F0400111F4C06FC16001D097
:102BC0008260704702694168891AC269891A816006
:102BD00070472DE9F05F04468946C06840F48000E4
:102BE00010F4C06FE06008D0204601F051FA206870
:102BF000002802DD401E206033E0E068010312D5AA
:102C000020F40020E060810606D4E26A61688A420E
:102C100000D80A46511A216040F40010E06094F890
:102C20002500BDE8F09F20F40010E060800602D58A
:102C30002046FDF7DCFEE06842F281014FF0FF3AEA
:102C40000140012903D02046FDF77AFEB0E021685B
:102C5000002600290ADAC94340F480502160C4E903
:102C600002606068411C61600078DAE744F240016C
:102C700008420CD020F4A04040F040002660E06004
:102C800021696068401AE169401AA06090E02169FA
:102C900091B9C00310D4E069FDF760FC2061B0B1C8
:102CA000E06840F4006010F4407FE06002D140F43E
:102CB0008070E06020696060E068D4F814B0C106FC
:102CC0001AD5C0030ED52046FDF76EFE14E004F1C0
:102CD000240020610120E061E06820F4407040F4AD
:102CE0008060E6E721696068401AA169014458469E
:102CF000FEF7D5FC0028A6DBE068C0032BD5616891
:102D0000E06A884200D808462169451AE069471BF5
:102D10001CD02046D4F81880FDF746FE08EB0501CC
:102D20005846C4F81880FEF7BAFC00288BDBE06830
:102D3000B9F1000F40F40030E06002D0A0692844EF
:102D4000A061E1692069C91B45180DE02046FDF727
:102D50002BFEE769F5E725696168D4E90607491B99
:102D6000E56208446560A061E068B9F1000F20F0F9
:102D7000100040F48050C4E9026005D02069E06290
:102D800060606FF001004CE7224639462846FFF7A5
:102D9000F1FE411C0CD02918E16258B1401E2060A0
:102DA000681C6060E06840F40030E060287838E734
:102DB000504636E765602046FFF7F7FEF8E72DE955
:102DC000F05F054617460C46C86820F4201040F412
:102DD0008000C860800602D50846FDF708FEE0685E
:102DE00041F282014FF0FF3A0140022903D0204610
:102DF000FDF7A6FDB9E000F42041B1F5004F0FD179
:102E0000C00306D56168E06A884200D80846606061
:102E100006E02069E06260606069FEF748FCA0613E
:102E2000A0680022EEB200280DDAE1688B050AD412
:102E3000C043A06041F490302260E0606068411CB3
:102E400061600670AAE0E0689146226040F400509C
:102E5000E060206978BB6069FEF71BFC04F1240583
:102E60004FF00108A8B1A08910F4407F08D0E069B4
:102E7000FDF774FB206118B1E06840F4006017E0D2
:102E8000C4F81C802561E06820F4407040F4806044
:102E90000EE0E069FDF762FB00282061F0D0E068F9
:102EA00040F4006010F4407FE06002D140F4807094
:102EB000E06020696060E06825696FF0010BC10582
:102EC0001ED56168E06A884200D80846411B04D0DC
:102ED00022462846FDF73EFDE8BB1FB1E562C4E986
:102EE000015959E0681CE0626060E069401EA06022
:102EF000E06840F48030E06030462E70BDE8F09F1E
:102F000017B100F480320AE06068411C616006700D
:102F1000E0680A2E40F48030E06006D00022E16ACA
:102F20006068814203D90B4602E00122F7E70346BD
:102F3000B4F80CC05B1B5FEA4C5C04D4D4F81CC032
:102F40009C4500DD02B3814200D80146002BA1EB75
:102F50000008E56200E008E0C4E9015907DD224607
:102F600019462846FDF7F6FC08B15046C6E7B8F109
:102F7000000F09D0A169E5626560A1EB0800A061BE
:102F8000E06840F01000E06047B16168A069E56268
:102F9000491B08446560A0615846AFE73046ADE77D
:102FA00070B5C468A50713D0650211D4B2F5807F4F
:102FB00009D0B2F5007F06D0B2F5806F08D10123A9
:102FC00000F1240106E05D1E6FF07F46B54201D39B
:102FD000012070BD0161C361416024F4706111433F
:102FE000C160002070BD00002DE9F84399461746E6
:102FF00080464FF000060C0002D18846012717A436
:10300000B9F1000F25D105210020AFF300808146E2
:103010001FE014F8011B4A46684600F03EF8761C93
:103020000546401C0FD0AD1C13D0B8F1000F03D0E3
:10303000BDF80010A8F80010BDF80000002800D06E
:103040003046BDE8F883FDF785FA04210160284683
:10305000F7E77F1EDDD26FF00100F2E7000000000D
:103060007CB50C46054622B906210020AFF300804E
:1030700002462146684600F030F80446401C07D05E
:1030800025B1224669462846FDF7ACFF20467CBDA7
:10309000FDF760FA04210160F8E7F8B516460C4622
:1030A0000546FDF74BFA036893F80101012804D0A7
:1030B000185D78B101202C80F8BDD3F803013246A9
:1030C000214603F20313C71868460023B847009946
:1030D0002980F8BD4FF0FF30F8BD2DE9F0411646CC
:1030E0000C460546FDF72AFA036893F8010101280A
:1030F00007D0FF2C12D8185D80B101202C70BDE8DC
:10310000F081D3F807013246214603F20713C718AE
:103110002846BC46BDE8F041002360474FF0FF3031
:10312000EDE710B50446AFF300802046BDE810403F
:10313000FDF7DBB810B500F0CDFFBDE8104000F0A2
:10314000C3BF10B500F0DEFFBDE8104000F0BCBF0B
:1031500001B5FDF747FF01BD01B5FDF788FF01BDD2
:103160007047034640688C46002818BF88423CBF21
:1031700003464068F8D318681844884207D00CF119
:10318000030020F00700001D411A521A0146081DD5
:103190000A60FDF712BAB2F120030AD5C2F120038A
:1031A00001FA02F120FA03F341EA030100FA02F006
:1031B000704700FA03F14FF00000704730B5B0F1EE
:1031C0000A0271F100034FEA900E4EEA817EB0EBE5
:1031D0000E0061EB91014FEA101E4EEA017E10EBEA
:1031E0000E0041EB11114FEA102E4EEA016E10EB6A
:1031F0000E0041EB11214FEA104E4EEA014E10EB4A
:103200000E0041EB1141401841F100014FEAD0009E
:1032100040EA41704FEAD1014FEA810444EA9074D8
:1032200010EB800544EB01046D1944EB0404521BC0
:10323000A3414FF0000348BF0A3200D530BD401C07
:1032400041F1000130BD10B50446FDF777F9006883
:10325000005D00F0010010BD2DE9F0470D469946D4
:103260009246044600F124080168880604D5E06906
:1032700021F01001216000E00120A84201DD471B80
:1032800000E00027A1697A1902EB0900081AA06181
:103290002078C00602D42046FEF7FCFA002608E09B
:1032A000D4E901211AF806009047206A401C761CD8
:1032B00020624E45F4DB2078C0060AD52046FEF792
:1032C000E9FA06E0D4E9012130209047206A401C49
:1032D0002062381EA7F10107F4DC07E0D4E90121E0
:1032E00018F805009047206A401C2062281EA5F1AE
:1032F0000105F3DC2046FEF7E3FA2078000602D54C
:103300000220BDE8F0870120FBE72DE9FF4F0C46C6
:103310001E464FF0FF378BB0D2E90001DDF8608028
:103320000A908A46C1F30A5505B93D460021084670
:103330004FF00000BAF1000F00F4400005DA00EB96
:1033400080004FF4400101EA50004FEA9059B9F172
:10335000010F00DDB9460A9850EA4A000ED044F643
:103360001050A5F2FF3545432F14B8F1000F1ED0C1
:103370007542291E1EDDC9F100021CE0B8F1010FE3
:103380004FF0000001D0302103E0F24305E021546A
:10339000401CB042FBDB30460022002121540B9937
:1033A000C1F80880C1E900200FB0BDE8F08FBD1B57
:1033B0006D1CDEE74A4600DA694206A800F09CFD73
:1033C00006AB93E8070003AB83E8070050460A9971
:1033D00013F058FB8DE80700A0F500501F3800904F
:1033E0000398002D0ADD42F21F014A4608440023DB
:1033F00003A90390684613F003FE09E0A0F500500E
:103400004A461F38002303A90390684613F022FEA2
:103410008DE807000004000C03D04FF0FF30410896
:1034200000E01046B8F1000F03D0002200921546CC
:103430001EE0751E05D4FFF7C1FE303262556D1EC9
:10344000F9D5B3460122084302D000227F1C04E0D4
:103450002078302801D100227F1E002A099784D0CD
:103460001DE0112D07DAFFF7A9FE303262556D1C01
:1034700050EA0102F5D1084302D00098C8B10EE02D
:103480000021681E05E0235C625C63542254401EE8
:10349000491C8142F7DBAB46A81B401E0990002067
:1034A00004F80B000B98099AC0F80880C0E9002BBB
:1034B0007AE711264FF0000857E72DE9F04F8846CC
:1034C0000446D21D22F0070191B0D1E90001CDE9F7
:1034D0000A0113F00BFF02460B98C00F01D02D20FC
:1034E00007E02068810701D52B2002E0202101EAB6
:1034F000C000032A099001D0072A05DB0346414694
:10350000204600F02BFE0BE12078800601D5E06913
:1035100000E00620B8F1650F814606D0B8F1660FCD
:1035200018D0B8F1670F70D131E00020B9F1110F58
:10353000009001DB112301E009F101030AAA01A9AE
:103540000CA8FFF7E2FEDDE90C70002609F1010589
:10355000834647E001204B4600904FF000470AAAFF
:1035600001A90CA8FFF7D1FEDDE90DB00C995D466D
:10357000002610B909F101000D18B9EB050003D4BC
:10358000C0F1FF3609F10105A5EB09002BE0B9F107
:10359000010F01DA4FF001090020B9F1110F00907D
:1035A000484601DD112300E003460AAA01A90CA840
:1035B000FFF7ABFEDDE90C704D4600268346207810
:1035C00000070AD4AB4500DA5D4601A8012D04DDF1
:1035D000411911F8011C302907D04F4502DA17F1C3
:1035E000040F04DA012082460FE06D1EEEE7002F83
:1035F00002DCED1B3E4403E0781CA84200DD7D1C8C
:10360000B81B00F1010A4FF000472078000703D4EF
:10361000AA4501DB4FF0FF3A0021B7F1004F0DF151
:1036200043088DF8431024D002202B23002F01DA09
:103630007F422D230A21021EA0F1010000DC5FB1B0
:1036400097FBF1FC97FBF1F201FB1C7C17460CF198
:10365000300C08F801CDEEE7A8F1010003702188D5
:10366000090501D5452100E06521A0F1010800F818
:10367000011C09980FA9A1EB0807FF1D00B101204B
:10368000411901EBEA70A1693844081A401EA06193
:103690002078C00602D42046FEF7FCF8099828B12D
:1036A000D4E901219047206A401C20622078C0069E
:1036B00022D52046FEF7EEF81EE0002E04DBB345CF
:1036C00002DD01A8805D00E03020D4E901219047AF
:1036D000206A401C2062761CAAF101005FEA000A01
:1036E0000AD1FEF71FF8C0680168405CD4E90121E7
:1036F0009047206A401C2062281EA5F10105DCDCF1
:1037000007E0D4E9012118F8010B9047206A401C1A
:103710002062381EA7F10107F3DC2046FEF7D0F83F
:10372000032011B041E600002DE9F04F04460D469C
:10373000D21D22F0070089B0D0E9009748463946EB
:1037400013F0D4FD0246F80F01D02D2307E02068C6
:10375000810701D52B2302E0202101EAC0038DF867
:1037600020300BB1012000E00020032A824601D066
:10377000072A04DB2946204600F0F0FC3FE12078D0
:10378000800601D40D2500E0E569C7F30A560D2D2A
:1037900049DA00214FEA175B08464FF00000002F7E
:1037A00000F4400007DA00EB80004FF4400100EB2A
:1037B000D07001EA60008115012901DD4FF0FF3171
:1037C00000224FEA850CBCF1180F06D31346ACF16A
:1037D00018004FF08052C24003E04FF4801323FAE8
:1037E0000CF30CF10C0CBCF1200F04D3ACF1200C49
:1037F00009FA0CF001E007FA0CF000294FF000483C
:1038000001DD18B90FE00ED140450CD319EB0209C8
:103810005F4121B9404502D19F4329EA0209BBEB30
:10382000175F00D0761C2088000502D57B487844BD
:1038300002E07A487844193808AA302302F80A309E
:10384000037C0AF10101002E0AF1020A53546A4670
:1038500002DC4FF0300101E04FF031014FF0010880
:103860008DF8001002D0A6F2FF3603E059EA4701B6
:1038700000D06B4E002D02DC2178090704D54FF0F3
:1038800002082E218DF80110C44600210BE0C7F379
:1038900003433F01C35C491C6D1E02F80830052933
:1038A00008F1010801DA002DF1DC00210CE000EB49
:1038B0001973491C1B786D1E082902F808304FEA5D
:1038C000091908F1010801DA002DF0DC21688B06E6
:1038D00002D516E0A8F10108E04505DD02EB08037A
:1038E00013F8013C302BF5D0B8F1000F09DD02EBE5
:1038F000080313F8013C2E2B03D1090701D4A8F1CA
:103900000108002D05DD3E2102F808106D1E08F1AA
:103910000108407C002E02F8080008F1010804DAD2
:103920002D20764202F8080002E02B2002F8080061
:103930000A214FF47A70864208F101080BDB96FBEE
:10394000F0F3303302F8083096FBF0F308F1010889
:1039500000FB136601E0642E0CDB642096FBF0F3A1
:10396000303302F8083096FBF0F308F1010800FB51
:10397000136601E00A2E06DB96FBF1F0303002F808
:10398000080008F1010896FBF1F001FB10603030EF
:1039900002F80800A16908F1010808EB050202EB32
:1039A0000A00081AA0612078C00602D42046FDF75C
:1039B00071FF216A08AE01EB0A00206204E0D4E93D
:1039C000012116F8010B9047BAF1010AF7D22078CD
:1039D000C00602D52046FDF75DFF6E4609E016F8E9
:1039E000010B3E280FD0D4E901219047206A401CEA
:1039F0002062B8F10108F2D22046FDF761FF09B05C
:103A00000320BDE8F08F206A2844206203E0D4E957
:103A10000121302090476D1EEBD3F8E74E440100A2
:103A200002FCFFFF0A6802F8010B0A60704710B53C
:103A3000436913B1AFF3008001E0FDF764FF01209B
:103A400010BD127800F124010A7000224A70012290
:103A5000EDE711684FF0FF32E9E710B5436913B1A4
:103A6000AFF3008001E0FDF7E7FF012010BD1288F1
:103A700000F1240182840022C2840122EDE7116852
:103A80004FF0FF32E9E73A2800D2303820F0200228
:103A9000412A01D3A2F13700884201D34FF0FF3011
:103AA000704700002DE9F34F4FF0000A0C465646D0
:103AB0008DB001200C9001F10C000B9062690B9805
:103AC00001219047051E2DD0252D2CD0216A884735
:103AD000C0B162690B9801219047216A884700288C
:103AE000F7D16269411E0B98904700E0761CA169EE
:103AF0000D988847216A88470028F7D1E1690D9819
:103B00008847DBE7A1690D988847A842074601D19D
:103B1000761CD3E7E1690D9888477F1C02D1BAF182
:103B2000000F6FD06BE162690B9800273D46394664
:103B300090472A2804D162690B98012190470125FA
:103B4000DFF8D08262690B9801219047A0F1300123
:103B50000A290AD24745E5DC07EB870100EB41075C
:103B6000303FDFD445F01005ECE7E90601D46FF0F3
:103B700000476C280AD04C2814D0682815D06A2831
:103B80000DD074281CD07A281AD01DE062690B98D9
:103B9000012190476C2802D045F0040514E045F05F
:103BA00002050DE045F020050AE062690B9801214D
:103BB0009047682802D045F0080505E045F4006507
:103BC00062690B9801219047C4E9015765283DD0EF
:103BD00019DC58287AD00CDC452837D004DC25289D
:103BE00026D041289ED131E046282FD0472899D1B0
:103BF0002CE05B2877D0612828D063287CD064280B
:103C000023D15AE0F6E06F2848D008DC66281DD0A2
:103C100067281BD0692821D06E2816D127E070288C
:103C200045D0732868D0752847D078280DD14DE04D
:103C3000A1690D988847252805463FF469AFE169D9
:103C40000D9888476D1C3FF46AAFD8E00D99234664
:103C50006A466FF0010013F0C4FFC5E045F0400074
:103C600023464FF000026060A80736D43EE0E80724
:103C70007FF447AF2068011D21600068290501D548
:103C800006701BE7290701D5068017E7A90703D5AA
:103C9000F117C0E9006111E706600FE745F0400049
:103CA00023464FF008026060A80716D41EE040F6D5
:103CB0000E0125EA0100606016E045F04000234651
:103CC0004FF00A026060A80707D40FE045F04000FB
:103CD0006060A80708D5234610220D996FF00100F7
:103CE000FEF78CF880E007E0102223460D996FF074
:103CF0000100FEF72EF977E04FF0000963284F46E8
:103D0000C8464B46CB4602D05B2806D038E0E806D2
:103D100001D40120A060012732E06269D4F80CB020
:103D20000B98012190475E2807D14FF001094946C1
:103D30006269D4F80CB00B989047216939B9002119
:103D40000A4603AB43F82120491C0829FADBD8B303
:103D5000216949B308F1010862690B980121904774
:103D60005D28F4D1B9F1000F09D0002003A951F862
:103D70002020D24341F82020401C0828F7DB03AB69
:103D80002069002820794FEA40701ED05B46224609
:103D9000CDF80080CDE901970D9900286FF0010062
:103DA00020DAFEF77FFE1FE0C11703AA00EBD16106
:103DB0004B1121F01F0102EB8302411A136801200D
:103DC000884003431360C7E719E00D992246002895
:103DD0006FF00100009702DAFEF766FD04E0FEF7DF
:103DE0005EF901E0FEF7EAFD00280ADA401C06D180
:103DF0000C9820B14FF0FF300FB0BDE8F08F504667
:103E0000FAE7E90701D10AF1010A064400200C9003
:103E100054E60000CCCCCC0C2DE9F74F4FF0000954
:103E20001546CA46009C14F8010B302801D0ADB1EC
:103E300015E014F8010B4FF00109782803D0582839
:103E400001D04DB10BE00DB1102D08D14FF000099C
:103E500014F8010B102502E0082500E00A250027D0
:103E60004FEAE57B3E46B84616E0A5FB07234FF038
:103E7000010905FB08000BFB0731030C05FB0616C7
:103E8000D7181FFA80F846F10006381E76F5803004
:103E900000D3CA4614F8010B2946FFF7F4FD0028A9
:103EA000E3DA019838B1B9F1000F01D0641E00E0E7
:103EB000009C01980460BAF1000F08D0FCF74AFB9F
:103EC00002210160C81E014603B0BDE8F08F310435
:103ED00041EA174148EA0740F6E710B508E030F834
:103EE000024B9C4204D10AB1002010BD012010BD3C
:103EF000491EF4D2104610BD2DE9F0478146164602
:103F00008AB0354878440DC88DE80D0032487844B1
:103F1000801C03AC0DC884E80D0041F69B300844BA
:103F2000372190FBF1F290FBF1F5A5F1800501FB43
:103F300012041B3C02D56442012000E00020DFF89F
:103F400098A080460027FA44AAF1BE0A0EE0E007D6
:103F50000AD03246684607EB470101230AEB81018C
:103F600013F078F88DE8070064107F1C002CEED168
:103F7000194F7F44AE3F19E0E80715D007EB041056
:103F80000DF1180A90E80E008AE80E00C068F042B1
:103F900001D1981908903246012306A903A813F00D
:103FA00059F803AB83E807006D10641C002DE3D1C2
:103FB0004FF0010332466946B8F1000F03A802D062
:103FC00013F01EF801E013F045F8C9E90001C9F843
:103FD00008200AB0BDE8F087083E01002DE9F0474F
:103FE0001C469246804602FB01F511B3A7680020EB
:103FF00038E0002F38DCE069A8421DDAB9F1000F83
:104000001AD0224629464046FCF7A4FC08B1A76016
:1040100025E0E06810F4C06F01D0002008E02269BC
:104020006168891AE269511AC003A16001D448424B
:10403000A0605046BDE8F087A84201DA012200E006
:104040000022214698F80000FEF7B9FE411C06D078
:10405000A768002805DB6D1E08F1010813E00020A9
:10406000E8E7012081460EE0AF423E4600DD2E46E5
:10407000414632466068FCF7B5FF6068BF1BAD1B68
:104080003044B0446060002DB3DCA760D1E700008D
:1040900070B5054640F202260A4C0FE094F8500035
:1040A000C00708D0AC4206D0E06836EA000002D172
:1040B0002046FCF7D3F9206D20F00104002CEDD14F
:1040C00070BD000018000020002801D0FDF7F6BAEE
:1040D0007047000010B5002102A000F0A9FA0120ED
:1040E00010BD0000534947414252543A2041626E8C
:1040F0006F726D616C207465726D696E6174696F49
:104100006E00000010B5014602A000F091FA0120F7
:1041100010BD000053494752545245443A2052655D
:104120006469726563743A2063616E2774206F70EE
:10413000656E3A200000000010B500F093FABDE86B
:104140001040FFF7C1BF10B5FCF704FA006810BDBE
:1041500010B50446FCF7FEF9046010BD2DE9F041EE
:104160001F46044603260168072A01F4006004DBA9
:1041700008B116A505E016A503E008B115A500E0F5
:1041800015A521F010002060A069C01EA0610FB12C
:10419000401EA0612046FDF77DFB4FB1D4E901210F
:1041A00038469047206A401C2062C01C206206E00E
:1041B000206AFAE7D4E9012115F8010B9047761E31
:1041C000F8D22046FDF77CFBBDE8F0814E414E0061
:1041D0006E616E00494E4600696E66002DE9FF4F24
:1041E0001F464FF03C0987B04FF00042DDE9141044
:1041F00001F10108DDF858A002EA405003900020C8
:1042000005908346054604460490B969461E089801
:104210008847AAF1010A0290BAF1000F3BDD02982B
:104220002E2815D01021FFF72EFC00282EDB4FF092
:10423000010B0599014317D0B9F1000F0BDB4A467A
:10424000C117FEF7A8FF05430C43A9F1040905E0D7
:10425000012004900BE008B145F001050120059014
:10426000049820B9361D02E0049800B1361FB969E0
:10427000089808F101088847BBF1000FAAF1010A6C
:104280000290C9D00999C1F80080C5E7029870284A
:1042900008D0502806D0F96908988847BBF1000F6C
:1042A00014D04FE0002002900120BBF1000F0490D9
:1042B00009D0B969089808F101088847AAF10109ED
:1042C000B9F1000F07DCF969089888476FF0010021
:1042D0000BB0BDE8F08F2B2804D02D280CD14FF067
:1042E000FF300490B969089808F101088847A9F1DE
:1042F0000109B9F1000FE6DD411CE4D00A21FFF706
:10430000C2FB0028DFDB029908F1010801EB810103
:1043100000EB41000290B969089888470A21FFF72D
:10432000B2FB099AA9F10109B9F1000FC2F80080A6
:1043300001DD0028E7DAF9690898884704990298AE
:1043400000FB016655EA040004D004F04041090076
:1043500002D006E0039898E0A40044EA9574AD000A
:10436000B61E04F00041080002D16D196441761EAA
:10437000159810F0240F03D04FF00B095C4803E0B0
:104380004FF028096FF07D008246564507DAAAEB08
:1043900006018944B9F1410F01DD4FF041090120C7
:1043A0000021A9F10102FEF7F6FE024628400B4665
:1043B0002140084301D0012100E00021501E02915C
:1043C00043F1FF3128402140084301D0012000E0A3
:1043D00000200299834651EA0B014FD00021084684
:1043E0004FF00000039900F4400039B100EB800069
:1043F0004FF4400100EBD07001EA60008015012805
:1044000002DD4FF0FF3000E013D0401C36D00298A0
:1044100060B3BBF1000F0CD14A4601200021FEF72A
:10442000BAFE28402140084301D0012000E00020CE
:10443000E0B101204A460021FEF7ADFE03464019D7
:104440000A4661412D1A8C4111D3B9F1400F09DDA3
:10445000159810F0240F02D0AAF1340603E0AAF157
:10446000170600E0761C00254FF0004406E05B1EB6
:1044700042F1FF3220EA030521EA0204CAF10100F9
:10448000B04206DA1B4903980843019000200090CF
:104490000EE0039AC4F3D321E80A0A43164940EA1E
:1044A00044500A433146CDE90002684613F045F80E
:1044B000159810F0240F0BD01598C00715D1386847
:1044C000DDE90012031D3B600068C0E900120CE04A
:1044D00002A8694613F028F81598C00705D1386876
:1044E000029A011D3960006802604046F0E6000053
:1044F00002FCFFFF0000F07F0000F03F2DE9FF4FBE
:1045000092461D4685B04FF00041DDE9124BDDE9D2
:1045100014727F1E01EA4B50414940F0FF4940EAC6
:104520000108002122F020004928049102D04E28E1
:1045300028D04CE03BA0012607C88DE80700A969F8
:104540000698641C88477F1E014606D41DF80600A5
:1045500018B121F0200181420BD0E9690698884703
:10456000032E34D0082E32D06FF0010009B0BDE820
:10457000F08F761C032E01D0082EE0D1601CCAF803
:104580000000DCE7A9690698641C88477F1E2AD4CE
:1045900020F02000412826D1A9690698641C88478C
:1045A0007F1E20D420F020004E281CD1A969069837
:1045B000641C88477F1E48F4002849F48009CAF823
:1045C000004001D4282806D0E969069888475FEAA8
:1045D000CB7012D022E0A9690698641C88477F1E20
:1045E00001D4002803DAE96906988847BCE729283E
:1045F000F1D1641CCAF80040E9E71BF0240F07D092
:1046000028680499031D2B600068C0E9001805E0C4
:104610002868021D2A600068C0F800902046A5E7BF
:104620000000F07F494E46494E49545900000000B1
:1046300070B505460C460A2000E06D1C00F03AF803
:1046400035B128780028F8D102E0641C00F032F877
:1046500014B120780028F8D1BDE870400A2000F09D
:1046600029B8000010B5012805D0002103A0FFF7EC
:10467000DFFF012010BD09A1F8E7000053494752B0
:10468000544D454D3A204F7574206F662068656122
:1046900070206D656D6F7279000000003A204865EA
:1046A0006170206D656D6F727920636F72727570C5
:1046B0007465640008B569468DF800000320ABBE40
:1046C00008BD0000FEE7000040F61850C2F20000EE
:1046D00000F062B870470000EFF3108072B600007F
:1046E00070B5866D044600F0E9FA94F83510022999
:1046F0002ED105462068216C026822F01602026065
:10470000426922F08002426109B9A16C19B10168C5
:1047100021F008010160016821F0010101600068D9
:10472000C00708D000F0CAFA401B052818D8206836
:104730000068C007F6D1E06D3F2101FA00F0B060DB
:10474000012084F835000020002184F8341070BD69
:10475000802060650120002184F8341070BD00BF06
:1047600020206065032084F83500002184F834108F
:1047700070BD000090F83510022909D1052180F89C
:1047800035100068016821F00101016000207047C8
:104790008021416501207047F0B581B004460020BA
:1047A000009040F21400C2F200000268D4E91660E2
:1047B00048F2B51337680821C1F64E3381403942BB
:1047C000A2FB03250CD0226813685B0708D5136889
:1047D00023F004031360B160616D41F00101616574
:1047E00001218140394208D022685269120604D55D
:1047F000B160616D41F0020161650421814039427F
:1048000008D022681268920704D5B160616D41F04A
:104810000401616510218140394217D02068026887
:10482000120713D5B16002680168520308D4C905A4
:1048300008D4016821F008010160216C21B905E06C
:1048400008033FD4216C09B120468847E16D202040
:1048500000FA01F23A4241D020680368DB063DD5F8
:10486000B26094F835300268052B1BD122F0160295
:104870000260426922F080024261226C0AB9A26C95
:104880001AB1026822F0080202603F208840B0603E
:10489000012084F83500216D0020002984F83400BF
:1048A00052D157E00168520310D4C90512D40168EF
:1048B00021F010010160012084F83500002084F807
:1048C000340007E0A16C0029BED1BFE7080301D482
:1048D000616C00E0E16B09B120468847606DC8B3A8
:1048E000606DC0072ED0052084F835002068A90A25
:1048F000026822F001020260009A01328A420092AC
:104900001AD80268D20717D0009A01328A42009260
:1049100012D80268D2070FD0009A01328A42009260
:104920000AD80268D20707D0009A01328A42009260
:1049300002D80268D207DFD1012084F835000020B8
:1049400084F83400E16C29B1204601B0BDE8F040A4
:10495000084700BF01B0F0BD2DE9F041044600F06A
:10496000ADF9002C4ED00546022084F83500002019
:10497000216884F83400086820F0010008600868A5
:10498000C00708D000F09AF9401B05286CD82168B0
:104990000868C007F6D1086848F23F02CFF210025B
:1049A000D4E90135024004F10C0E9EE8C1511A43CE
:1049B0002A4310433043384340EA0800626A40EA21
:1049C0000C00042A40EA0E0320D1D4E90A5E206BD1
:1049D0004EEA0302104308604869BEF1000F20F060
:1049E000030040EA050040F0040C15D0B8F5005F64
:1049F00042D0B8F1000F51D1022D52D0012D47D035
:104A000055B94EE00120BDE8F08100BF0B60486958
:104A100020F0070040EA020C6FF00F004AF6AB22CC
:104A200050FA81F0CAF6AA22A0FB02231A0949F61D
:104A30000813C0F601039A5C40F2FF335F284FF081
:104A40003F00C1F814C021EA030100FA02F088BF58
:104A50000431C4E916128860002301220020636536
:104A600084F83520BDE8F08103222023032063650C
:104A700084F83520BDE8F081032DCDD801224023F4
:104A80000120DFE805F0030E030500BFE7E700BFE4
:104A9000AEF1C070B0FA80F0400904E0032D04D3F9
:104AA000BAD1CEF300600028B6D001224023012005
:104AB000636584F83520BDE8F0810000B0B5044698
:104AC00000F0FCF8054640F20C00C2F2000000784D
:104AD000611C18BF044400BF00F0F0F8401BA04266
:104AE000FAD3B0BD2DE9F04F82B000F13E4241F65D
:104AF000004502F1FF77C4F2020508224FEAB7260B
:104B0000A84208BF0722072E38BF4FEAB7224FF04E
:104B1000010A002400274FF00008009208E000BFBF
:104B2000023708F10108202F04F1040400F0B480DA
:104B30000E680AFA08F916EA090FF1D0D1F804A0B4
:104B40000AF0030BABF10106012E17D80322866889
:104B500002FA07FECA6826EA0E06BA4032438260AD
:104B60004268CAF3001522EA090205FA08F54FEA7D
:104B7000480C6FEA0E062A4342600BE00322BA405B
:104B8000D643BBF1030FBC4604D1BC464FF0030B28
:104B900022E000BFC2688D68324005FA0CF52A4356
:104BA000BBF1020FC26017D16FF0030202EA580294
:104BB000024404F01C030F25D2F820E005FA03FAA2
:104BC0000D692EEA0A0E05FA03F343EA0E03136297
:104BD000D1F804A00AF0030B02680BFA0CF3324080
:104BE0001A431AF4403F4FF0010A026098D00022A5
:104BF00043F644030192C4F202031A6843F6004EDE
:104C000042F480421A601A68C4F2010E02F4804233
:104C10000192019A28F003024FF6084C7244CFF635
:104C2000FF7C52F80C3004F00C060F25B540AB4366
:104C3000009D05FA06F6334342F80C30DEF80820F2
:104C40004B6842EA090643F60C4CDD0258BF22EAE3
:104C50000906CEF80860C4F2010CDCF800209D02C1
:104C600042EA090658BF22EA0906CCF80060DEF8DD
:104C700004209D0342EA090658BF22EA0906CEF83D
:104C80000460DEF80020DB0342EA090658BF22EA8E
:104C90000906CEF8006043E702B0BDE8F08F0000DF
:104CA000426902EA0103914341EA0341816170478D
:104CB000002A08BF090481617047000040F60460C3
:104CC000C2F200000068704740F20C0040F6046138
:104CD000C2F20000C2F2000100780A6810440860C5
:104CE0007047000080B543F60040C4F2020001683E
:104CF00041F400710160016841F480610160016864
:104D000041F480710160032000F084F80F2000F06E
:104D100005F800F027F8002080BD000070B540F2D3
:104D20000C06C2F2000640F214013278C2F2000111
:104D30004FF47A730968B3FBF2F20446B1FBF2F167
:104D4000084600F041FB0F2C4FF0010508D838B998
:104D50004FF0FF3021460022002500F02FF874604C
:104D6000284670BD82B0002043F640010190C4F295
:104D700002014A6842F480424A604A6802F4804272
:104D80000192019A0090086840F08050086008681D
:104D900000F080500090009802B07047002848BF93
:104DA000704700F01F01012202FA01F14EF20012D9
:104DB0004009CEF2000242F82010704710B54EF6BE
:104DC0000C5CCEF2000CDCF80030C3F3022E8EF047
:104DD0000704042C28BF0424BEF103034FF0FF3E58
:104DE0000EFA04F438BF0023A14399400EFA03F3EE
:104DF0009A43114300F00F02043A624409010C3255
:104E000000F16043B0F1FF3FC8BF03F56442117089
:104E100010BD00004EF60C51CEF200010A684FF6AC
:104E2000FF031A4060F30A2242F0806040F0FD70F8
:104E3000086070472DE9F041002800F08B8043F6B0
:104E40000808C4F202080446D8F8F8030D4600F03A
:104E50000700884207D288F8F853D8F8F80300F022
:104E60000700A84276D12068810717D5410705D5EC
:104E7000D8F8001041F4E051C8F80010010705D53A
:104E8000D8F8001041F46041C8F80010D8F80010BC
:104E9000A26821F0F0011143C8F80010C0073FD10B
:104EA000D8F8F80300F00700A84207D988F8F853AB
:104EB000D8F8F80300F00700A8424BD1206841075A
:104EC00007D5D8F80010E26821F4E0511143C8F882
:104ED0000010000708D5D8F80000216920F46040D0
:104EE00040EAC100C8F8000000F07CF8D8F80010D3
:104EF00047F64A52C1F30311C0F60102515C40F279
:104F0000140220FA01F140F21000C2F20000006821
:104F1000C2F200021160FFF701FF0020BDE8F0813E
:104F20006068811E022907D258F8081C89015CBFFD
:104F30000120BDE8F08111E0012807D158F8081CD4
:104F400089035CBF0120BDE8F08107E058F8081C28
:104F5000890703D40120BDE8F08100BFD8F8001014
:104F600021F003010843C8F80000FFF7A7FE06463A
:104F700041F28837D8F80000616800F00C00B0EB0F
:104F8000810F8DD0FFF79AFE801BB842F2D9032023
:104F9000BDE8F08140F2140043F60801C2F20000BF
:104FA000C4F202010068096847F65A52C1F382212F
:104FB000C0F60102515CC8407047000040F2140086
:104FC00043F60801C2F20000C4F202010068096859
:104FD00047F65A52C1F34231C0F60102515CC84053
:104FE0007047000010B543F60404C4F20204606880
:104FF00000F00C0008280BD0042819BF42F2004032
:10500000C0F2F40047F64000C0F27D1010BD00BFB2
:10501000206821682368490247F64001C0F27D11EB
:1050200000F03F02C3F388105CBF42F20041C0F2BF
:10503000F401A1FB00010023FBF77EF921680222A5
:10504000C1F3014102EB4101B0FBF1F010BD0000E2
:105050002DE9F04182B000286AD00446007843F67A
:105060000006C007C4F202060BD0B06800F00C00C6
:10507000042840F0A1803068800302D560680028D1
:1050800056D0207880071AD5B06810F00C0F09D0E0
:10509000B06800F00C00082840F0A880706840025A
:1050A00000F1A4803068800702D5E06801283FD174
:1050B0003068216920F0F80040EAC10030602078B3
:1050C000000739D4207840074ED4A5695DB3B06895
:1050D00000F00C00082840F0BD80012D28D0706839
:1050E000E16900F480028A4222D1216A00F03F0285
:1050F0008A421DD147F6C071626A0140B1EB821F3E
:1051000016D1A26A0023CFF6FF7303EBC23200F47C
:1051100040316FF30F0291420AD1E16A00F07060F2
:10512000B0EB016F04D1002002B0BDE8F08100BFF8
:10513000012002B0BDE8F0816069002840F2000063
:10514000C4F2472076D00121C0F8801EFFF7B6FDDB
:10515000054600BF706F8007B4D4FFF7AFFD401B5A
:105160000228F7D9DDE000BF306C10F080580AD17A
:1051700000200190306C40F080503064306C00F0C2
:1051800080500190019847F20007C4F20007386888
:10519000C00541D4386840F480703860FFF78EFD58
:1051A000054600BF3868C00536D4FFF787FD401BB1
:1051B0000228F7D9B5E000BFB06800F00C0008285D
:1051C00003D1706840023FF556AF6068B0F5803F8C
:1051D00007D0B0F5A02F40F08D80306840F48020DB
:1051E0003060306840F4803030608DE0E068002846
:1051F00052D00020C4F2472001210160FFF75EFD7C
:10520000054600BF306880073FF552AFFFF756FDF7
:10521000401B0228F6D984E0A068012805D00528A3
:105220004ED1306F40F004003067306F40F0010025
:1052300030674FE00021C0F8801EFFF73FFD0546B4
:10524000706F80077FF53EAFFFF738FD401B0228E7
:10525000F6D966E00027C4F2472700203866FFF73A
:105260002DFD022D05460BD1306880015ED5FFF77C
:1052700025FD401B02284FF00300F5D954E700BF7D
:10528000306880017FF54FAFFFF718FD401B022803
:105290004FF00300F4D947E70020C4F24720002173
:1052A0000160FFF70BFD0546306880077FF507AF0B
:1052B000FFF704FD401B02284FF00300F4D933E749
:1052C000316F002821F001013167316F21F00401B5
:1052D00031674DD0FFF7F2FC054641F2883700BF39
:1052E000306F800756D4FFF7E9FC401BB842F7D96E
:1052F00017E000BF3168002821F480313160316847
:1053000021F4802131604FD0FFF7D8FC054600BF63
:10531000306880033FF5B5AEFFF7D0FC401B642832
:10532000F6D9032002B0BDE8F08100BF04F11C05EE
:105330002FCD08430021CFF6FF7140EA821001EB28
:10534000C3316FF30F0140EA05600843706001202C
:105350003866FFF7B3FC0446306880013FF5E3AEE2
:10536000FFF7ACFC001B02284FF00300F4D9DBE68A
:10537000FFF7A4FC054641F2883700BF306F800775
:1053800008D5FFF79BFC401BB8424FF00300F5D94E
:10539000CAE600BFB8F1000F7FF497AE306C20F082
:1053A0008050306491E600BFFFF788FC054600BFDF
:1053B000306880037FF565AEFFF780FC401B6428F2
:1053C0004FF00300F4D9AFE6411E0020B0EB116F9F
:1053D0001CBF012070474EF21002CEF20002516055
:1053E0004EF62351CEF20001F0230B70072190609E
:1053F00011607047704700007047000010B590F8CA
:105400003C20012A4FF0020251D080F83D20026872
:10541000D2F804E0D2F808C00C682EF070032343E1
:1054200041F2FF74C4F20004A24253600EDC40F269
:10543000FF73C4F200039A4216DCB2F1804F2BD006
:1054400040F20043C4F2000324E000BF40F2FF3307
:10545000C4F201039A4213DC41F60003C4F20003D4
:105460009A4219D0002313E040F60003C4F200036F
:105470009A4211D040F60043C4F200030AE000BF94
:1054800044F20003C4F201039A4205D040F2004303
:10549000C4F201039A4204D149682CF080031943F5
:1054A00091600121002280F83D1080F83C201046D8
:1054B00010BD0000002804BF0120704710B504464D
:1054C00090F83D0028B9002084F83C00204600F008
:1054D0001FF8022084F83D002068211D00F0E2FD45
:1054E000012084F8460084F83E0084F83F0084F8E8
:1054F000400084F8410084F8420084F8430084F8B6
:10550000440084F8450084F83D00002010BD0000F0
:1055100080B582B00068B0F1804F1CBF02B080BD82
:105520000020019043F64000C4F20200016800220E
:1055300041F0010101600068002100F001000190CC
:1055400001981C20FFF73AFC1C2002B0BDE8804007
:10555000FFF724BC80B590F83C20012A4FF00202EE
:1055600000F0C28080F83D20D0F800C04FF677727E
:10557000DCF8083023EA0202CCF808200B684F2B35
:1055800028DC1F2B44DD202B45D0302B43D0402B73
:1055900040F0AC80D1F804E0C968DCF82030DCF8D9
:1055A000202022F00102CCF82020DCF8182022F084
:1055B000F00242EA011123F00A0242EA0E02CCF89C
:1055C0001810CCF82020DCF8081041F0470121F039
:1055D000300180E06F2B27DDB3F5005F48D0B3F5D5
:1055E000805F7AD0702B40F08180D1E901E3C968F7
:1055F000DCF8082043EA0E0322F47F4243EA01214B
:105600001143CCF80810DCF8081041F0770162E093
:105610000BB1102B6AD1DCF8081021F0700119438E
:1056200041F0070157E000BF502B35D0602B5DD112
:10563000D1F804E0C968DCF8203023F01003CCF87E
:105640002030DCF81830DCF8202023F4704322F0FE
:10565000A00243EA013142EA0E12CCF81810CCF84D
:105660002020DCF8081041F0670121F0100132E041
:10567000D1E901E3C968DCF8082043EA0E0322F40B
:105680007F4243EA01211143CCF80810DCF80810EE
:1056900041F480411FE000BFD1F804E0C968DCF8A4
:1056A0002030DCF8202022F00102CCF82020DCF8A9
:1056B000182022F0F00242EA011123F00A0242EA25
:1056C0000E02CCF81810CCF82020DCF8081041F0BD
:1056D000570121F02001CCF808100022012180F8A8
:1056E0003D10002180F83C10104680BD0122F5E7F6
:1056F0007047000010B5016804460869800744BF80
:10570000C8685FEA807039D40869400744BFC86838
:105710005FEA40703ED40869000744BFC8685FEA8A
:10572000007045D40869C00644BFC8685FEAC0601D
:105730004AD40869C0071CBFC8685FEAC07051D16D
:105740000869000644BFC8685FEA006052D408696F
:10575000400644BFC8685FEA406053D408698006C9
:1057600046BFC8685FEA806010BD6FF02002204627
:105770000A61BDE81040FFF73FBE00BF6FF00200B6
:105780000861012020778869800743D02046FFF711
:10579000AFFF45E06FF004000861022020778869C0
:1057A00010F4407F40D02046FFF7A2FF42E000BF48
:1057B0006FF00800086104202077C86980073DD099
:1057C0002046FFF795FF3FE06FF0100008610820CA
:1057D0002077C86910F4407F3AD02046FFF788FF51
:1057E0003CE000BF6FF001000861204600F03EF889
:1057F0002168A5E76FF0800008612046FFF7FAFDF9
:105800002168A4E76FF040000861204600F030F8FE
:105810002168A3E7204600F025F8204600F024F890
:105820002168002020776FE7204600F01BF8204613
:1058300000F01AF82168002020776CE7204600F07D
:1058400011F8204600F010F821680020207769E761
:10585000204600F007F8204600F006F821680020F6
:10586000207766E77047000070470000704700002F
:10587000704700007047000070470000B0B582B06C
:10588000044600680168C368426901F02F05202DB5
:1058900003F0200506D12DB1204602B0BDE8B0408E
:1058A00000F0A4BC5FEA017C1EBF02F0010E03F40D
:1058B000907212EB0E0255D1226B012A05D111F024
:1058C000100218BF13F0100236D10A0622D513F0C9
:1058D00080021FD094F83D10212941D1A168B1F573
:1058E000805F03D12169002900F06C82216A4A1C83
:1058F000226209784160E18C01390A04E1842FD1E8
:10590000C16821F08001C160C16841F04001C160FF
:1059100002B0B0BD490623D513F0400120D0C168C4
:1059200021F04001C1602021204684F83D1002B0E2
:10593000BDE8B04000F0DEBA00210191016801919C
:105940004168019101994169490600F18B80A18D5F
:10595000E28DE38D002B1CBF891A5FEA01420CD156
:1059600002B0B0BDCA0718BF13F4807240F0328194
:105970004A0700F135813AE1206850E8030F2268B8
:1059800020F4907042E80303DBB1206850E8030F75
:10599000226820F4907042E8030393B1206850E835
:1059A000030F226820F4907042E803034BB1206893
:1059B00050E8030F226820F4907042E80303002BA4
:1059C000DAD1206850E8050F226820F0010042E893
:1059D0000503DBB1206850E8050F226820F00100C4
:1059E00042E8050393B1206850E8050F226820F0D3
:1059F000010042E805034BB1206850E8050F22681A
:105A000020F0010042E80503002BDAD1202084F8C1
:105A10003E0000202063206850E8030F226820F039
:105A2000100042E80303DBB1206850E8030F22684E
:105A300020F0100042E8030393B1206850E8030F00
:105A4000226820F0100042E803034BB1206850E8C0
:105A5000030F226820F0100042E80303002BDAD184
:105A600089B2B0E0A26B11684B689DB2002D3FF483
:105A700077AFA18D8D42BFF473AFE385D269B2F5E4
:105A8000807F00F09D8050E8030F216820F4807033
:105A900041E80302E2B1206850E8030F216820F4D6
:105AA000807041E803029AB1206850E8030F216832
:105AB00020F4807041E8030252B1206850E8030FDF
:105AC000216820F4807041E803020AB12068DAE717
:105AD000206850E8050F216820F0010041E8050228
