:020000040800F2
:10000000700B00209D0100088D1D00082D1B0008AD
:10001000891D000885020008B51F000800000000C7
:10002000000000000000000000000000951D000816
:10003000A504000800000000911D0008991D00089B
:10004000B7010008B7010008B7010008B7010008B0
:10005000B7010008B7010008B7010008B7010008A0
:10006000B7010008B7010008B7010008B701000890
:10007000B7010008B7010008B7010008B701000880
:10008000B7010008B7010008B7010008B701000870
:1000900089020008B7010008B7010008B70100088D
:1000A000B7010008B7010008B7010008B701000850
:1000B000611E0008B70100086D1E0008B7010008A6
:1000C000B7010008B7010008B7010008B701000830
:1000D000B7010008B7010008B7010008B701000820
:1000E000B7010008B7010008B7010008B701000810
:1000F000B7010008B7010008B7010008B701000800
:10010000B7010008B7010008B7010008B7010008EF
:10011000B7010008B7010008B7010008B7010008DF
:10012000B7010008B7010008B7010008B7010008CF
:10013000B7010008B7010008B7010008B7010008BF
:1001400095020008B7010008B7010008B7010008D0
:10015000B7010008B7010008B7010008B70100089F
:10016000B7010008B7010008B7010008B70100088F
:10017000B7010008B7010008B7010008000000003F
:10018000B7010008B7010008DFF80CD000F068F8EC
:1001900000480047B91F0008700B00200648804740
:1001A00006480047FEE7FEE7FEE7FEE7FEE7FEE75C
:1001B000FEE7FEE7FEE7FEE74D1E000889010008A6
:1001C0002DE9F05F0546002092469B46884606468C
:1001D000814640241BE0284641464746224600F01F
:1001E0002FF853465A46C01A914110D3114618466B
:1001F000224600F016F82D1A67EB01084F462246FA
:100200000120002100F00DF817EB00094E41201EDF
:10021000A4F10104DFDC484631462A464346BDE8E6
:10022000F09F202A04DB203A00FA02F100207047F8
:100230009140C2F1200320FA03F319439040704724
:10024000202A04DB203A21FA02F00021704721FA2B
:1002500002F3D040C2F12002914008431946704792
:10026000064C074D06E0E06840F0010394E8070003
:1002700098471034AC42F6D3FFF78AFF28200008D5
:1002800048200008FEE7000040F28C60C2F2000047
:1002900000F088BA40F2B460C2F2000000F082BA06
:1002A00070B50546006846F20046C4F20006B0424A
:1002B0000C4619D006F58061884227D1A4F20120AE
:1002C000052888BF70BDDFE800F0032331213941E4
:1002D00040F23800C2F2000040F21001C2F2000108
:1002E000BDE8704001F024BCA4F2012003280DD821
:1002F0001EA151F8200040F21001C2F2000101F0ED
:1003000017FC286806F580618842D7D070BD00BF11
:1003100040F23800C2F20000B43040F21001C2F2E4
:100320000001BDE8704001F003BC00BF40F238009E
:10033000C2F2000000F5B4740CE000BF40F224509B
:10034000C2F2000000F1B40404E000BF40F2245403
:10035000C2F2000440F21001C2F20001204601F096
:10036000E7FB2046BDE8704001F0F6BB54020020D8
:1003700008030020BC0300207004002010B58AB0E0
:100380000024CDE904140821DDE90CEC0891110AE0
:100390008DF80810190A8DF80A104FEA1E218DF801
:1003A0000C104FEA1C218DF809208DF80B308DF8C8
:1003B0000E1004A902AA01AB0194CDE906448DF800
:1003C0000DE08DF80FC000F08DF80AB010BD0000F0
:1003D00080B58AB0012000210890CDE906100E20DA
:1003E000099040F28C60CDE90011CDE90211049131
:1003F0000591C2F20000694600F0D2F8002818BF4B
:1004000000F052F840F28C60C2F2000000F018FCDC
:10041000002818BF00F048F840F28C60C2F20000DB
:10042000022100F047F8002818BF00F03DF840F224
:100430008C60C2F20000012100F03CF8002818BFD7
:1004400000F032F80E200990059040F2B460C2F23C
:100450000000694600F0A4F8002818BF00F024F856
:1004600040F2B460C2F2000000F0EAFB002818BFBE
:1004700000F01AF840F2B460C2F20000022100F06D
:1004800019F8002818BF00F00FF840F2B460C2F26B
:100490000000012100F00EF8002818BF00F004F859
:1004A0000AB080BD70470000EFF3108072B600BF45
:1004B000FEE7000090F82020013A012A08D80068E1
:1004C00000F114020020136819431160704700BF47
:1004D00000F1240201204FF48021136819431160B8
:1004E0007047000010B590F820E0D0F800C0AEF1E1
:1004F000010EBEF1010FDCF808E011D81EF0E05F3C
:1005000018D0CEF3016EBEF1030F1DD100F124010E
:1005100001204FF400020B681A430A6010BD00BFAF
:1005200000F1240101204FF480220B681A430A6075
:1005300010BD00BF00F1240101204FF400120B6830
:100540001A430A6010BD00BF012000FA0EF01860C7
:10055000886818B14B6840EAC30001E008684005AC
:10056000D1E9033403430CEB0E10C0F88031C0F81E
:100570008441097D012905D100F5C2710B6843F45E
:1005800080730B605168C0F88C11126800F5C0715F
:10059000C0F88821002001220B681A430A6010BDB0
:1005A000B0B590F82020013A012A2FD846F2006019
:1005B000C4F20000026842F001020260026822F404
:1005C0007C520260D1F814E0CC694A6A0368012CBD
:1005D00043EA022202600EF01F024FF0010303FA09
:1005E00002F2C3696FEA020C23EA0203C36113D06B
:1005F0002CBBC36803EA0C03C360CB688C8844EA55
:10060000034300EBCE0423640B4611E0416A41F43E
:10061000802141620120B0BDC3681343C3600B68F1
:100620008C8844EA034300EBCE04236401F10C03FD
:100630008C681B8843EA044300EBCE046364436880
:100640008D6943EA0204D1F810E0096A002D08BF61
:1006500003EA0C0444604369BEF1000F43EA02045C
:1006600008BF03EA0C040129446102D1C1691143A6
:10067000C161016821F0010101600020B0BD0000EE
:100680007047000010B590F82040013C012C71D853
:10069000D0F800C0002977D0DCF81040A40777D04C
:1006A0000CEB011CDCF8B0410CF5D87E14F004040E
:1006B0009460DCF8B04119BFE4085460640D146024
:1006C000DEF80040002904F00204D460DCF8B441F4
:1006D00004F00F041461DCF8B441C4F307249461FE
:1006E000DCF8B4414FEA14445461DCF8B8211A70C4
:1006F000026802EB0112D2F8B8214FEA12225A70B6
:10070000026802EB0112D2F8B8214FEA12429A7045
:10071000026802EB0112D2F8B8214FEA1262DA70D5
:10072000026802EB0112D2F8BC211A71026802EBD6
:100730000112D2F8BC214FEA12225A71026802EB70
:100740000112D2F8BC214FEA12429A71026802EB00
:100750000112D2F8BC214FEA1262DA71006814BFAC
:1007600000F1100100F10C01002020220B681A4357
:100770000A6010BD00F1240101204FF480220B68B3
:100780001A430A6010BD00BFDCF80C40A40787D1F3
:1007900000F1240101204FF400120B681A430A6093
:1007A00010BD00002DE9F04F81B004460068466995
:1007B000D0F804908768D0F80CB0D0F810A0D0F82A
:1007C0001880F10704D1002530071DD424E000BFB4
:1007D000F90710D00121BA07816009D4780700F128
:1007E000AF80380700F1B680204600F057FA02E0EB
:1007F000204600F055FA0025F80500F18780F8033F
:1008000000F1B180300707D51BF0100004D020683C
:1008100045F400751021C160700708D51BF0080071
:1008200005D020680821C160204600F0EFF9B0072C
:1008300006D52068C068800702D0204600F0E8F99D
:10084000700607D51AF0100004D0206845F48065C2
:1008500010210161B00608D51AF0080005D0206803
:1008600008210161204600F0E5F9F00606D5206870
:100870000069800702D0204600F0DEF9B00308D5F9
:1008800019F0100005D0206810214160204600F0CA
:10089000D5F9F00308D519F0080005D02068082123
:1008A0004160204600F006FA300440F19B805FEA88
:1008B000497040F1948006F4807008EA10202843C3
:1008C0005FEA8871014648BF41F00201B20558BF96
:1008D00001465FEA48700D4648BF45F004057005C3
:1008E00058BF0D46300540F17A8018F0700000F0D6
:1008F00076801038000905286CD8DFE800F003592D
:100900005D61656945F0080564E000BF20684FF44B
:100910008071BA0581600BD4780515D438051DD4D3
:10092000204600F0BFF9F8037FF56CAF1BE000BF75
:10093000204600F0B9F9F8037FF564AF13E000BF7B
:100940004FF4006558E700BF05F50055F8037FF543
:1009500059AF08E04FF480554EE700BF05F58045DC
:10096000F8037FF54FAF20684FF48031BA03816000
:100970000AD4780310D4380314D4204600F096F932
:1009800030073FF541AF47E7204600F091F93007C7
:100990003FF53AAF40E700BF05F5004530073FF5AA
:1009A00033AF39E705F5803530073FF52DAF33E735
:1009B00045F010050EE000BF45F020050AE000BF3D
:1009C00045F0400506E000BF45F0800502E000BFAD
:1009D00045F480752068816921F07001816120688B
:1009E0000421416055B1606A40EA05012046616218
:1009F00001B0BDE8F04FFFF743BE00BF01B0BDE856
:100A0000F08F0000B0B5C8B1044690F8200010B9CE
:100A1000204600F071F82068016841F00101016092
:100A200000F042FA054600BF20684168C90707D1B7
:100A300000F03AFA401B0B28F6D312E00120B0BDBB
:100A4000016821F00201016000F02EFA054600BFA6
:100A50002068416889070DD500F026FA401B0B2855
:100A6000F6D3606A052140F400306062012084F80A
:100A70002010B0BD217E0268012922F0800208BF4B
:100A800080320260617E0268012922F0400208BFC4
:100A900040320260A17E0268012922F0200208BFD4
:100AA00020320260E17E0268012922F0100218BFA4
:100AB00010320260217F0268012922F0080208BF7B
:100AC00008320260617F0268012922F0040208BF37
:100AD00004320260D4E901C2D4E9033561691A43E2
:100AE0002A431143ACF101021143C16100200121ED
:100AF000606284F82010B0BD10B586B0006846F67C
:100B00000002C4F2000200219042CDE90411CDE9B7
:100B1000021101912ED046F20041C4F20001884238
:100B200071D140F23401C2F200010A6843F640007C
:100B3000C4F20200531C0B6052B9002100910168FD
:100B400041F000710160016801F0007100910099AD
:100B50000021009150F8101C142441F0020140F8CB
:100B6000101C50F8100C00F00200009000984FF498
:100B7000407030E043F64000C4F20200009101688A
:100B800041F080610160016801F08061009100998D
:100B900040F23401C2F200010A68531C0B6052B9E2
:100BA00000210091016841F000710160016801F0CD
:100BB0000071009100990021009150F8101C402410
:100BC00041F0020140F8101C50F8100C00F0020037
:100BD0000090009860200190022002900020039075
:100BE000032004900920059040F20040C4F2020066
:100BF00001A900F075F820460221002200F0D4F986
:100C0000204600F0C1F906B010BD0000704700009A
:100C1000B0B540F21005C2F2000505F1080200214E
:100C20002B460446FFF72EFDA9682046BDE8B040DC
:100C3000FFF736BB704700007047000070470000A8
:100C4000B0B5044690F8200001281DD1022084F898
:100C500020002068016821F00101016000F024F902
:100C6000054600BF20684068C00713D000F01CF99B
:100C7000401B0B28F6D3606A40F400306062052008
:100C800084F820000120B0BD606A40F4002060625A
:100C90000120B0BD00206062B0BD000070470000C0
:100CA0007047000070470000704700007047000068
:100CB0007047000070470000B0B5044600F0F4F83B
:100CC000054640F20000C2F200000078611C18BF27
:100CD000044400BF00F0E8F8401BA042FAD3B0BDC6
:100CE0002DE9F04F82B000F13E4241F6004502F19D
:100CF000FF77C4F2020508224FEAB726A84208BFD0
:100D00000722072E38BF4FEAB7224FF0010A00240E
:100D100000274FF00008009208E000BF023708F1FA
:100D20000108202F04F1040400F0B4800E680AFAD0
:100D300008F916EA090FF1D0D1F804A00AF0030B64
:100D4000ABF10106012E17D80322866802FA07FECE
:100D5000CA6826EA0E06BA40324382604268CAF385
:100D6000001522EA090205FA08F54FEA480C6FEA75
:100D70000E062A4342600BE00322BA40D643BBF181
:100D8000030FBC4604D1BC464FF0030B22E000BF6A
:100D9000C2688D68324005FA0CF52A43BBF1020F98
:100DA000C26017D16FF0030202EA5802024404F055
:100DB0001C030F25D2F820E005FA03FA0D692EEA8C
:100DC0000A0E05FA03F343EA0E031362D1F804A0F6
:100DD0000AF0030B02680BFA0CF332401A431AF4C0
:100DE000403F4FF0010A026098D0002243F64403CE
:100DF0000192C4F202031A6843F6004E42F48042A4
:100E00001A601A68C4F2010E02F480420192019A3B
:100E100028F003024FF6084C7244CFF6FF7C52F8DC
:100E20000C3004F00C060F25B540AB43009D05FACD
:100E300006F6334342F80C30DEF808204B6842EAED
:100E4000090643F60C4CDD0258BF22EA0906CEF82B
:100E50000860C4F2010CDCF800209D0242EA090699
:100E600058BF22EA0906CCF80060DEF804209D0392
:100E700042EA090658BF22EA0906CEF80460DEF805
:100E80000020DB0342EA090658BF22EA0906CEF831
:100E9000006043E702B0BDE8F08F0000002A08BF01
:100EA000090481617047000040F26C70C2F20000DA
:100EB0000068704740F2000040F26C71C2F200001E
:100EC000C2F2000100780A68104408607047000010
:100ED00080B543F60040C4F20200016841F400719D
:100EE0000160016841F480610160016841F4807132
:100EF0000160032000F084F80F2000F005F800F0F6
:100F000027F8002080BD000070B540F20006C2F254
:100F1000000640F208013278C2F200014FF47A7301
:100F20000968B3FBF2F20446B1FBF2F1084600F0A7
:100F300019FB0F2C4FF0010508D838B94FF0FF30DE
:100F400021460022002500F02FF87460284670BD6D
:100F500082B0002043F640010190C4F202014A68C9
:100F600042F480424A604A6802F480420192019A47
:100F70000090086840F080500860086800F08050D9
:100F80000090009802B07047002848BF704700F0FA
:100F90001F01012202FA01F14EF200124009CEF2C5
:100FA000000242F82010704710B54EF60C5CCEF2ED
:100FB000000CDCF80030C3F3022E8EF00704042C82
:100FC00028BF0424BEF103034FF0FF3E0EFA04F4E1
:100FD00038BF0023A14399400EFA03F39A4311430B
:100FE00000F00F02043A624409010C3200F1604340
:100FF000B0F1FF3FC8BF03F56442117010BD00009F
:101000004EF60C51CEF200010A684FF6FF031A406B
:1010100060F30A2242F0806040F0FD700860704783
:101020002DE9F041002800F08B8043F60808C4F257
:1010300002080446D8F8F8030D4600F0070088427D
:1010400007D288F8F853D8F8F80300F00700A84250
:1010500076D12068810717D5410705D5D8F800104B
:1010600041F4E051C8F80010010705D5D8F8001088
:1010700041F46041C8F80010D8F80010A26821F0CF
:10108000F0011143C8F80010C0073FD1D8F8F803A9
:1010900000F00700A84207D988F8F853D8F8F803F9
:1010A00000F00700A8424BD12068410707D5D8F8C7
:1010B0000010E26821F4E0511143C8F80010000765
:1010C00008D5D8F80000216920F4604040EAC1004A
:1010D000C8F8000000F054F8D8F8001042F21802E6
:1010E000C1F30311C0F60002515C40F2080220FA7D
:1010F00001F140F20400C2F200000068C2F20002F6
:101100001160FFF701FF0020BDE8F0816068811EDB
:10111000022907D258F8081C89015CBF0120BDE8EC
:10112000F08111E0012807D158F8081C89035CBF41
:101130000120BDE8F08107E058F8081C890703D4B6
:101140000120BDE8F08100BFD8F8001021F00301B4
:101150000843C8F80000FFF7A7FE064641F28837AB
:10116000D8F80000616800F00C00B0EB810F8DD062
:10117000FFF79AFE801BB842F2D90320BDE8F08148
:1011800010B543F60404C4F20204606800F00C00D9
:1011900008280BD0042819BF42F20040C0F2F40026
:1011A00041F60030C0F2B70010BD00BF20682168D2
:1011B0002368490241F60031C0F2B70100F03F0256
:1011C000C3F388105CBF42F20041C0F2F401A1FBFE
:1011D00000010023FEF7F4FF21680222C1F3014160
:1011E00002EB4101B0FBF1F010BD00002DE9F04130
:1011F00082B000286AD00446007843F60006C00793
:10120000C4F202060BD0B06800F00C00042840F0D5
:10121000A1803068800302D56068002856D020780D
:1012200080071AD5B06810F00C0F09D0B06800F034
:101230000C00082840F0A8807068400200F1A480EB
:101240003068800702D5E06801283FD13068216905
:1012500020F0F80040EAC10030602078000739D45F
:10126000207840074ED4A5695DB3B06800F00C004B
:10127000082840F0BD80012D28D07068E16900F495
:1012800080028A4222D1216A00F03F028A421DD1A7
:1012900047F6C071626A0140B1EB821F16D1A26AA3
:1012A0000023CFF6FF7303EBC23200F440316FF33B
:1012B0000F0291420AD1E16A00F07060B0EB016F59
:1012C00004D1002002B0BDE8F08100BF012002B0CF
:1012D000BDE8F0816069002840F20000C4F24720B8
:1012E00076D00121C0F8801EFFF7DEFD054600BF65
:1012F000706F8007B4D4FFF7D7FD401B0228F7D9E1
:10130000DDE000BF306C10F080580AD10020019061
:10131000306C40F080503064306C00F080500190B0
:10132000019847F20007C4F200073868C00541D4AD
:10133000386840F480703860FFF7B6FD054600BF9E
:101340003868C00536D4FFF7AFFD401B0228F7D937
:10135000B5E000BFB06800F00C00082803D1706849
:1013600040023FF556AF6068B0F5803F07D0B0F55A
:10137000A02F40F08D80306840F4802030603068CD
:1013800040F4803030608DE0E068002852D00020CA
:10139000C4F2472001210160FFF786FD054600BF2A
:1013A000306880073FF552AFFFF77EFD401B0228F3
:1013B000F6D984E0A068012805D005284ED1306F09
:1013C00040F004003067306F40F0010030674FE0BC
:1013D0000021C0F8801EFFF767FD0546706F80078B
:1013E0007FF53EAFFFF760FD401B0228F6D966E0AF
:1013F0000027C4F2472700203866FFF755FD022D6D
:1014000005460BD1306880015ED5FFF74DFD401BCE
:1014100002284FF00300F5D954E700BF306880017F
:101420007FF54FAFFFF740FD401B02284FF0030050
:10143000F4D947E70020C4F2472000210160FFF7FC
:1014400033FD0546306880077FF507AFFFF72CFDB9
:10145000401B02284FF00300F4D933E7316F002816
:1014600021F001013167316F21F0040131674DD066
:10147000FFF71AFD054641F2883700BF306F80073D
:1014800056D4FFF711FD401BB842F7D917E000BF53
:101490003168002821F480313160316821F48021E5
:1014A00031604FD0FFF700FD054600BF3068800374
:1014B0003FF5B5AEFFF7F8FC401B6428F6D90320D2
:1014C00002B0BDE8F08100BF04F11C052FCD084338
:1014D0000021CFF6FF7140EA821001EBC3316FF3B8
:1014E0000F0140EA05600843706001203866FFF78D
:1014F000DBFC0446306880013FF5E3AEFFF7D4FC27
:10150000001B02284FF00300F4D9DBE6FFF7CCFC08
:10151000054641F2883700BF306F800708D5FFF7D6
:10152000C3FC401BB8424FF00300F5D9CAE600BF28
:10153000B8F1000F7FF497AE306C20F0805030642B
:1015400091E600BFFFF7B0FC054600BF306880039E
:101550007FF565AEFFF7A8FC401B64284FF0030041
:10156000F4D9AFE6411E0020B0EB116F1CBF012083
:1015700070474EF21002CEF2000251604EF6235137
:10158000CEF20001F0230B700721906011607047CC
:10159000704700007047000010B590F83C20012A09
:1015A0004FF0020251D080F83D200268D2F804E0EA
:1015B000D2F808C00C682EF07003234341F2FF7488
:1015C000C4F20004A24253600EDC40F2FF73C4F286
:1015D00000039A4216DCB2F1804F2BD040F2004358
:1015E000C4F2000324E000BF40F2FF33C4F2010361
:1015F0009A4213DC41F60003C4F200039A4219D068
:10160000002313E040F60003C4F200039A4211D015
:1016100040F60043C4F200030AE000BF44F20003B6
:10162000C4F201039A4205D040F20043C4F2010320
:101630009A4204D149682CF080031943916001213A
:10164000002280F83D1080F83C20104610BD0000BC
:10165000002804BF0120704710B5044690F83D00F3
:1016600028B9002084F83C00204600F01FF8022032
:1016700084F83D002068211D00F0FEFB012084F865
:10168000460084F83E0084F83F0084F8400084F867
:10169000410084F8420084F8430084F8440084F850
:1016A000450084F83D00002010BD000010B582B058
:1016B000006840F60001C4F20001884214D0B0F185
:1016C000804F2DD10020019043F64000C4F202006B
:1016D00001681C2441F001010160006800F0010074
:1016E0000190019810E000BF0020009043F64000F8
:1016F000C4F2020001681E2441F004010160006888
:1017000000F0040000900098204604210022FFF71A
:101710004BFC204602B0BDE81040FFF735BC00BFCF
:1017200002B010BD90F83D1001291CBF0120704788
:10173000022180F83D10006841F2FF72C168C4F2D6
:101740000002904241F00101C1600DDC40F2FF71E6
:10175000C4F20001884215DCB0F1804F2AD040F27B
:101760000041C4F2000123E040F2FF31C4F2010164
:10177000884213DC41F60001C4F20001884219D00E
:10178000002113E040F60001C4F20001884211D0AC
:1017900040F60041C4F200010AE000BF44F200013B
:1017A000C4F20101884205D040F20041C4F20101B7
:1017B000884206D1816801F00701062904BF002094
:1017C0007047016841F0010101600020704700008E
:1017D00080B590F83C20012A4FF0020200F0C28050
:1017E00080F83D20D0F800C04FF67772DCF8083062
:1017F00023EA0202CCF808200B684F2B28DC1F2BB1
:1018000044DD202B45D0302B43D0402B40F0AC8022
:10181000D1F804E0C968DCF82030DCF8202022F0A0
:101820000102CCF82020DCF8182022F0F00242EA75
:10183000011123F00A0242EA0E02CCF81810CCF88B
:101840002020DCF8081041F0470121F0300180E051
:101850006F2B27DDB3F5005F48D0B3F5805F7AD0FA
:10186000702B40F08180D1E901E3C968DCF80820E1
:1018700043EA0E0322F47F4243EA01211143CCF8EC
:101880000810DCF8081041F0770162E00BB1102B72
:101890006AD1DCF8081021F07001194341F007010A
:1018A00057E000BF502B35D0602B5DD1D1F804E05C
:1018B000C968DCF8203023F01003CCF82030DCF8C5
:1018C0001830DCF8202023F4704322F0A00243EA11
:1018D000013142EA0E12CCF81810CCF82020DCF8C6
:1018E000081041F0670121F0100132E0D1E901E375
:1018F000C968DCF8082043EA0E0322F47F4243EA79
:1019000001211143CCF80810DCF8081041F48041A3
:101910001FE000BFD1F804E0C968DCF82030DCF833
:10192000202022F00102CCF82020DCF8182022F040
:10193000F00242EA011123F00A0242EA0E02CCF858
:101940001810CCF82020DCF8081041F0570121F0E5
:101950002001CCF808100022012180F83D10002160
:1019600080F83C10104680BD0122F5E7704700006A
:1019700010B5016804460869800744BFC8685FEA7B
:10198000807039D40869400744BFC8685FEA407076
:101990003ED40869000744BFC8685FEA007045D4B8
:1019A0000869C00644BFC8685FEAC0604AD40869D5
:1019B000C0071CBFC8685FEAC07051D10869000643
:1019C00044BFC8685FEA006052D40869400644BF5B
:1019D000C8685FEA406053D40869800646BFC8689B
:1019E0005FEA806010BD6FF0200220460A61BDE80A
:1019F0001040FFF7CFBD00BF6FF00200086101206B
:101A000020778869800743D02046FFF7AFFF45E085
:101A10006FF00400086102202077886910F4407F8D
:101A200040D02046FFF7A2FF42E000BF6FF0080061
:101A3000086104202077C86980073DD02046FFF761
:101A400095FF3FE06FF01000086108202077C8691B
:101A500010F4407F3AD02046FFF788FF3CE000BFFB
:101A60006FF001000861204600F03EF82168A5E70C
:101A70006FF0800008612046FFF78AFD2168A4E727
:101A80006FF040000861204600F04EF82168A3E79F
:101A9000204600F025F8204600F024F821680020B8
:101AA00020776FE7204600F01BF8204600F01AF878
:101AB0002168002020776CE7204600F011F82046CE
:101AC00000F010F821680020207769E7204600F038
:101AD00007F8204600F006F821680020207766E726
:101AE000704700007047000080B582B0006840F683
:101AF0000001C4F20001884202D002B080BD00BFE4
:101B000040F2B4604FF0000CC2F200004FF40071DC
:101B100041F270720023CDF800C0CDF804C0FEF78A
:101B20002DFC02B080BD000070470000FEE7000001
:101B300002898389C28043810A8812BA120C028109
:101B40004A8812BA120C82818A8812BA120CC28197
:101B50008979418470470000B0F90620B0F9081077
:101B60008B1A13F5805F07DAC28A0132C28212B281
:101B700001EB423101617047C28AB3F5805FC4BF97
:101B8000013AC28212B201EB42310161704700009A
:101B900080B540F28C6046F20041C2F20000C4F20F
:101BA00000010322002380E80E0000F10C014FF435
:101BB000A02C4FF4C00E81E8085083618383FEF7A8
:101BC00021FF002808BF80BDBDE88040FEF76CBC47
:101BD00080B540F2B46046F60001C2F20000C4F2E3
:101BE00000010322002380E80E0000F10C014FF4F5
:101BF000A02C4FF4C00E81E8085083618383FEF768
:101C000001FF002808BF80BDBDE88040FEF74CBC46
:101C1000B0B586B0002043F6300105900090C4F2C4
:101C200002010A6841F6004442F002020A600A68B2
:101C3000C4F2020402F002020092009A00900A68C4
:101C40004FF4E05542F001020A600A6802F0010216
:101C50000092009A00900A6842F004020A600A6842
:101C600002F004020092009A00900868002240F0FE
:101C70008000086008684FF4E05100F08000009098
:101C800000982046FFF70AF90120029002200390F5
:101C90000320049001A920460195FFF721F806B022
:101CA000B0BD000080B586B040F2DC600021C2F219
:101CB00000004FF08042A72340F2E73C0591CDE9B8
:101CC0000311CDE90011C0E90023C0E9021C016144
:101CD0008161FFF7BDFC002818BFFEF7E5FB4FF45C
:101CE0008050029040F2DC60C2F2000002A9FFF7CF
:101CF0006FFD002818BFFEF7D7FB40F2DC60C2F290
:101D000000006946FFF748FC002818BFFEF7CCFB2F
:101D100006B080BD80B586B040F2247040F6000267
:101D20000021C2F20000C4F20002A72340F2E73C07
:101D30000591CDE90311CDE90011C0E90023C0E907
:101D4000021C01618161FFF783FC002818BFFEF7C8
:101D5000ABFB4FF48050029040F22470C2F20000BE
:101D600002A9FFF735FD002818BFFEF79DFB40F2E2
:101D70002470C2F200006946FFF70EFC002818BF6D
:101D8000FEF792FB06B080BDFEE70000FEE7000014
:101D90007047000070470000FFF78CB8B0B592B0F4
:101DA000002443F64000CDE90A44CDE908440594F7
:101DB000CDE90344CDE901440094C4F20200016876
:101DC000022541F080510160006800F080500090D1
:101DD000009847F200000094C4F20000016841F44A
:101DE00080410160006800F480400090009801206C
:101DF00006904FF4803007904FF480000D9006203D
:101E00000E90A820CDE90F050420119006A80C958E
:101E1000FFF7ECF920B1EFF3108072B6FEE700BFD8
:101E20000F20CDE901054FF4A05004904FF48050ED
:101E3000059001A805210394FFF7F2F820B1EFF314
:101E4000108072B6FEE700BF12B0B0BD4EF68850EB
:101E5000CEF20000016841F470010160704700009B
:101E600040F2DC60C2F20000FFF782BD40F2247055
:101E7000C2F20000FFF77CBD10B540F6FF3E0368DC
:101E8000C4F2000E40F2004C7045C4F2010C27DC95
:101E9000B0F1804F31D040F20042C4F200029042D3
:101EA0002BD040F60002C4F20002904225D041F649
:101EB000FF72C4F20002904229DC70453CDCB0F1B4
:101EC000804F5FD040F20042C4F20002904259D0ED
:101ED00040F60002C4F20002904253D056E000BF28
:101EE00040F60042C4F20002904206D0604504D0A1
:101EF0000022C4F201029042D9D14A6823F0700353
:101F0000134341F6FF72C4F200029042D5DD43F65E
:101F1000FF72C4F20102904222DC42F20002C4F2DB
:101F2000000290422ED00022C4F20102904229D039
:101F3000604527D02AE000BF40F60042C4F200020C
:101F400090421FD041F60002C4F20002904219D024
:101F500041F60042C4F20002904213D016E000BFE6
:101F600044F20002C4F2010290420BD044F6000297
:101F7000C4F20102904205D044F20042C4F20102D0
:101F8000904203D1CA6823F44073134323F08002C4
:101F90004B69D1F800E08C681A430260C46240F4D7
:101FA0008062C0F828E0624504BF0969016301212D
:101FB000416110BDFEE70000FEF78AFFFFF7EEFE6D
:101FC000FFF726FEFFF7E4FDFFF702FEFFF76AFECC
:101FD000FFF7A0FEFEF7FCF940F2DC60C2F2000061
:101FE000FFF7A0FB40F22470C2F20000FFF79AFB5B
:101FF0003220FEF761FE00BFFEE702E008C8121FB4
:1020000008C1002AFAD170477047002001E001C1E1
:10201000121F002AFBD170470000000000000000E2
:1020200001020304060708094820000800000020F8
:1020300010000000FA1F00085820000810000020BF
:10204000600B00000A2000080100000010000000E2
:082050000024F4000000000070
:040000050800018965
:00000001FF
